:020000041000EA
:1000000000B5324B212058609868022188439860DF
:10001000D860186158612E4B002199600221596106
:100020000121F02299502B49196001219960352056
:1000300000F044F80222904214D00621196600F024
:1000400034F8196E01211966002018661A6600F04E
:100050002CF8196E196E196E052000F02FF8012189
:100060000842F9D1002199601B49196000215960AB
:100070001A491B48016001219960EB211966A021F2
:10008000196600F012F800219960164914480160C1
:100090000121996001BC002800D000471248134993
:1000A000086003C880F30888084703B5996A0420EC
:1000B0000142FBD001200142F8D103BD02B5186610
:1000C0001866FFF7F2FF186E186E02BD00000240BE
:1000D000000000180000070000035F00212200005C
:1000E000F4000018222000A00001001008ED00E03C
:1000F00000000000000000000000000074B24E7A12
:1001000000200420F7010010C3010010C5010010F9
:10011000C1010010C1010010C1010010C101001097
:10012000C1010010C1010010C1010010C701001081
:10013000C1010010C1010010C9010010CB01001065
:10014000CD010010CD010010CD010010CD01001037
:10015000CD010010CD010010CD010010CD01001027
:10016000CD010010CD010010CD010010CD01001017
:10017000CD010010CD010010CD010010CD01001007
:10018000CD010010CD010010CD010010CD010010F7
:10019000CD010010CD010010CD010010CD010010E7
:1001A000CD010010CD010010CD010010CD010010D7
:1001B000CD010010CD010010CD010010CD010010C7
:1001C00000BE00BE00BE00BE00BE00BEEFF3058054
:1001D000103800BEF2EB8871C8680510F068051091
:1001E0003402001090A31AE700201F49086006C8D7
:1001F00081F3088810471D48006800282FD10DA4FE
:100200000ECC002902D000F012F8F9E71849194A7B
:10021000002000E001C19142FCD1174988471749ED
:1002200088471749884700BEFDE701C901C29A42C5
:10023000FBD37047F0680510C000002084A50020A3
:10024000B40D06100000042000000420B40D0610B8
:10025000001004200010042000000000704709482E
:1002600003F060FC0047000008ED00E0000000D053
:10027000A8A50020E47303201D2800101904001015
:10028000DD2700105756000006005250ABB36053F4
:10029000A899011006005250861C0302C099011053
:1002A000060052505422A29DC899011005005250D8
:1002B000DE65F468B40D0610F8B5C0460448054B79
:1002C00010B5834203D0044B002B00D0984710BDDB
:1002D00084A5002084A500200000000006480749EE
:1002E000091A8B10C90FC91810B5491003D0044B57
:1002F000002B00D0984710BD84A5002084A50020C5
:100300000000000010B5074C2378002B09D1FFF73F
:10031000D5FF054B002B02D0044800E000BF0123AD
:10032000237010BDF0A6002000000000A08D011079
:10033000054B10B5002B03D00449054800E000BF71
:10034000FFF7CCFF10BDC04600000000F4A600205F
:10035000A08D011030B501008268C3680A4880187A
:10036000007801240025A4185D418C60CD60002D2B
:1003700003D106D1054B9C4203D9002200238A6099
:10038000CB60002130BDC046F00A00200695000079
:1003900030B59DB00421062000F0B2F9124D134B88
:1003A000009308232A00062102A800F0FDF802A805
:1003B00000F050F901210E4C2068494216F0C6F8B1
:1003C00007990C4804F08EFD0B48290004F08AFDC3
:1003D000206800230022002115F0ECFDFA204000E7
:1003E00017F08CFDFAE7C046F82A0000550300100C
:1003F000785D0120A08D0110B08D011010B5044969
:10040000044800F049F9FA20400017F077FDFAE7B8
:10041000C48D0110D08D011010B584B004F06EFDB4
:10042000012015F097FE104B186080220F491048EC
:100430000023019301240094D20017F047FB80228F
:100440000C490D4803AB019300940023520017F0B0
:100450003DFB0398012117F057FC17F089FBFA20A8
:10046000400017F04BFDFAE7785D0120DC8D0110AC
:1004700091030010E48D0110FD030010F0B50B4E48
:10048000840023189B0000259D5123189B00B4462F
:1004900063449D60DD608D681D614D685D600B6823
:1004A00013432418A400A351F0BDC046000005402A
:1004B000002303604360836010334360014B83601B
:1004C0007047C046FFFF000083001B189B000B48CD
:1004D0008446634400290CD01020824000290AD0B1
:1004E0000749186842400A40802149010B431A60BD
:1004F00070470800F1E70349F3E7C0460C000540E8
:100500000000FFFFFFFF000010B503000A004108D4
:100510000720084001211940FFF7D6FF10BD000059
:10052000F0B5C64600B54469A66C236E2000984716
:1005300080460F00A06A04F0B3FA114904F095FA5E
:10054000051C4046390004F0DBFA291C04F0A1FA2E
:10055000051C206A616A04F0D3FA011C8920C005D9
:1005600004F083FA011C281C04F093FA04F0C0FA8A
:1005700081B23000FFF7C8FF012080BCB846F0BD53
:1005800000007F43F0B585B005000C0016001F0089
:1005900001F074F90A9B0293019700962A00230048
:1005A00001F07EFA05B0F0BD70B584B004000D0016
:1005B00011001E0000230370002200238260C3602C
:1005C0000161214803F002FB6061A661300003F085
:1005D000CDFD02000B0000208021C90504F054F974
:1005E00003F00CFE20626162FF23A362A5646E46E5
:1005F0003000FFF75DFF23004C3307CE07C36B08C5
:1006000007201840A06501263540E565089B236654
:100610000E4B6365E36C022293431343E3642100B2
:100620004C31013AFFF72AFFA26D93009B189B0003
:10063000074A944663441A681640802252011343C5
:100640001E6004B070BDC04640420F00FF030000B2
:100650000000054010B582B0030001210170806DDB
:100660008200121892000A4884466244106881434E
:10067000802040010243116058694042054AC11779
:100680001C0030340094FFF77DFF02B010BDC0465F
:10069000000005402105001070B504000D0010F0A9
:1006A00033FD002805D110F02DFC0E4804F0EAFBC4
:1006B0000AE00D4804F0E6FB002011E00B4804F0CE
:1006C000E1FB0B4817F01AFC0A4B0B4A29002000EB
:1006D00010F0D1FC0028F1D1084804F0D3FB012030
:1006E00070BDC046088E0110F08D0110208E0110E3
:1006F000C40900003075000004004000408E011065
:1007000010B58300084A944663441A684024624046
:10071000803414408022520113431C60C000034BFC
:100720009C466044416010BD04C00140004001404F
:1007300080000B4B9C46604400290DD00823002A02
:100740000CD004221343026853400C221A40802329
:100750005B0103431A6070470023F0E70022F1E7D2
:1007600004C00140002909D08000094B9C46604428
:1007700080239B01034302221A6070478000044BD0
:100780009C466044C0239B01034302221A60F4E7A5
:1007900004C0014070B5D0231B061B68094C9D00A6
:1007A0002C59204207D1074D9B0004435C510D207A
:1007B00000F014FA70BD044B044A0548CC2102F045
:1007C00011F8C046DC6F01204C8E01101CE00110B6
:1007D000788E011010B50400D0231B061A680B4B4D
:1007E0009200D35818420BD00D2000F0FFFAD0230E
:1007F0001B061B6805499B005A58A2435A5010BD5E
:10080000034B044A0448D62101F0ECFFDC6F0120C1
:10081000B88E0110F8DF0110788E01100723034015
:100820009B00C00899403C308000014BC15070478C
:1008300000400140F8B507000C0016001D00FFF74E
:10084000EDFFFB089B00ED18072038408000844036
:10085000002E04D080239B012B431C60F8BDC023D5
:100860009B012B431C60F9E710B5D0231B061B68C6
:10087000002B03D0024BFFF7DDFF10BD014BFAE761
:10088000304101400041014010B501238340D02296
:100890001206936293610521FFF732FF10BD00003D
:1008A000034B1B6802201840431E9841C0B270479A
:1008B00000C00640EFF3108072B6034B1B68002B9C
:1008C000FBD0BFF35F8F70472C0100D0BFF35F8F69
:1008D000024B00221A6080F3108870472C0100D070
:1008E000F8B506000C001500FFF7E4FFE308F71861
:1008F000F15C07222240012393400B4205D1DBB279
:100900000B433B70FFF7E2FFF8BD2100280002F027
:1009100001F8F0B583B00600019114001F00FFF745
:10092000C9FF00E00134BC420CD8E308F518F35CC1
:100930000721214001228A401A42F3D1D2B21A4340
:100940002A7001E001246442FFF7C0FF002C02DBA3
:10095000200003B0F0BD019B002BF9D0089801F0F6
:10096000D9FF000070B505000C00FFF7A3FFE308F6
:10097000EE18EA5C0721214001238B40134204D08A
:100980009A433270FFF7A2FF70BD034B034A04483D
:10099000332101F027FFC046E48E011050E0011022
:1009A000048F0110002307E0054A9A189200BFF354
:1009B0005F8F0021116001331F2BF5D97047C046AE
:1009C00040000034054A1078431CDBB21370172B2B
:1009D00002D9130010221A707047C046F89F0020F9
:1009E00010B50100024A034B1800FFF779FF10BD54
:1009F000448F011080AD002010B582B00100054C7D
:100A0000054B00931F2318222000FFF782FF02B03E
:100A100010BDC04680AD0020648F0110074B9B685D
:100A2000103080001950BFF35F8FBFF35F8F044B0E
:100A30000021196082F310887047C04600ED00E085
:100A4000240100D010B50388DA0A1C2A05D15B0501
:100A50005B1502335B00C01810BD034B034A04480A
:100A6000B12101F0BFFEC046808F0110B4E001103B
:100A7000988F011010B5091A0B1F0A4A88180A4AE4
:100A8000904208D8C90706D45B105B055B0D074888
:100A9000184380B210BD064B064A0748A32101F057
:100AA000A1FEC046FC070000FE0F000000E0FFFFB3
:100AB000D48F0110A8E00110988F011010B5091A09
:100AC00004394A08090B08D14905490D064B0B4367
:100AD0000380064B1343438010BD054B054A06486F
:100AE000AB2101F07FFEC04600F0FFFF00F8FFFFE2
:100AF000049001107CE00110988F011001238340C5
:100B0000034A10681840431E9841C0B27047C0465F
:100B100000E100E0002904D0034B1860034B18608B
:100B20007047034B1860FBE780E200E000E100E063
:100B300080E100E010B5012383401800FFF7EAFFD1
:100B400010BD000001238340014A13607047C04676
:100B500000E200E0024B9B6810308000C0587047F4
:100B600000ED00E010B5FFF7F5FF002805D0054BBC
:100B7000C01A2F2803D8012010BD0020FCE7002058
:100B8000FAE7C046FC9F002070B504000D00EFF3AB
:100B9000108672B60C4B1B68002BFBD0BFF35F8F27
:100BA0002000FFF7D7FF094B984201D0A84205D19A
:100BB000320029002000FFF731FF70BD044B054AC9
:100BC0000548862101F00EFE240100D0CD01001061
:100BD00014900110DCE00110988F0110F0B5DE4692
:100BE00057464E464546E0B589B08146019115000D
:100BF000EFF3108A72B66D4B1B68002BFBD0BFF36E
:100C00005F8F6B4B00269E57002E41DB7400A419AA
:100C1000A400684824180622A256654B1A70664B39
:100C20009A684B4610339B00D35898461F00181AF9
:100C30002F2839D9614B984530D105AF604B3B80A7
:100C4000604973009B46981980005A4B984640446F
:100C50000230FFF70FFF78805B4BBB80FF23BB7137
:100C6000FD71019B079333005B449B00434407CF16
:100C700007C301231C43A046524641464846FFF79E
:100C8000CDFE09B0F0BCBB46B246A946A046F0BDB9
:100C90004E4B4F4A4F48D72101F0A4FD4E4B4C4AD2
:100CA0004C48DE2101F09EFD01380C2102F08EFF40
:100CB000002912D101239F43BB463B000027DA796C
:100CC000AA4211D90621595600290CDB4A005218B4
:100CD000920038491F008B18F1E7404B3C4A3D48D1
:100CE000EA2101F07FFD1F00002F2ED005AB3C4A0A
:100CF0001A80813A5A800623FB560293002B17DA9A
:100D0000384805AB9B469880029A9A71DD71019A2A
:100D10000792381D2100FFF7ADFEB880BE71254B4C
:100D20007200921992009B185A4613CA13C3A3E784
:100D3000381DFFF787FE01007000801980001D4BF1
:100D4000C0180430FFF796FEDBE705AF1C4B3B8075
:100D50001C49730002939B199B00164A90461A0087
:100D600042440392901CFFF785FE7880039A101D81
:100D70005946FFF77FFEB8801B4B5A464146521A30
:100D8000524153431B0DBB71FD71019A0792029BA7
:100D90009B199B00434407CF07C3114B5A4613804E
:100DA000813B538001231C43A04665E7240100D00A
:100DB000D5730320FC9F002000ED00E0CD01001062
:100DC00000A1FFFF2CA0002001BDFFFF4C900110EF
:100DD000C4E00110988F0110749001109C900110D4
:100DE0000148000001BD0000AAAA0000F0B5CE46EF
:100DF000474680B583B006000D00EFF3108872B649
:100E00004F4B1B68002BFBD0BFF35F8F4D4B9A6895
:100E100034001034A300D7584B4B9F4207D0AF4249
:100E200000D18BE00197494BFB1A2F2B09D9424681
:100E300039003000FFF7F2FD03B0C0BCB946B04640
:100E4000F0BD3000FFF75AFE814600213000FFF769
:100E500071FEBFF35F8FEFF30581002901D08C4253
:100E600011D10123019C9C430020A368AB4212D006
:100E70000622A256002A0DDB53009B189B00334A22
:100E80002000D418F1E7324B324A36213248FF3184
:100E900001F0A8FC2000AB4249D106256557002D82
:100EA0002BDB2A4B6A00521992009B189A68A260A9
:100EB000DA79E2719B795BB2A371002B0FDA2748D4
:100EC000A080224B6A00521992009B18244A117884
:100ED0009971157049463000FFF72CFEA7E76800AE
:100EE00040198000194BC0180430FFF7ABFD01001A
:100EF000231D1800FFF7BEFDE2E7002912D10028EC
:100F00000ED0FF238371174B838015490B78A37193
:100F10000E4A154BA41A644163431B0D0B70D9E7AD
:100F2000094FF2E71149201DFFF7C8FDD2E7104B2A
:100F3000084A6A210848FF3101F054FC024F76E765
:100F4000240100D000ED00E0CD010010FC9F002046
:100F50001091011094E00110988F011001BD000064
:100F6000D573032001BDFFFFAAAA000036A0002010
:100F70004491011010B5032304009C43064A944693
:100F8000644422681840C000FC3383409A43130035
:100F900081400B43236010BD00E400E070B50122E6
:100FA00002432E4BD31A2F2B28D8EFF30583002BA7
:100FB0002BD0EFF3108C72B6294909680029FBD0B9
:100FC000BFF35F8F254C274905002D1B6D416943F9
:100FD000090D4CB2244989689B00C95891421BD025
:100FE0000021032932D81D4B4A00521892009B1849
:100FF0009B795BB2A3421FD00131F2E71B4B1C4A25
:10100000C7211C48490001F0EDFB1B4B184A9221F7
:101010001848FF3101F0E6FB134A92681749D15096
:10102000174B1A7882711C70BFF35F8F0C4B002234
:101030001A608CF3108870BD084B4A005518AD003B
:101040005D19FF26AE710F4AAA80E9E70E4B084AE8
:10105000D1210848490001F0C5FBC046FC9F002093
:10106000240100D0AAAA000000ED00E04C9101107C
:1010700060E00110988F011074910110CD010010F3
:10108000D573032001BDFFFF809101100022044BA6
:1010900002E0044902C30132072AFAD97047C04668
:1010A00000E400E08080808010B582B00100074C31
:1010B000074B0093052300222000FFF72AFC00289D
:1010C00001DB1F23181A02B010BDC046E1730320D4
:1010D00088910110024B9C46614489000160704771
:1010E0004000003410B5002B02DB0260436010BDED
:1010F000024B034A03483F2101F074FBA491011005
:101100001CE10110C091011070B582B006001400FE
:101110001D00FA22920000230698002103F082FCB1
:1011200002000B0012196B41002B09DB6846FFF728
:10113000D9FF009A019B32607360300002B070BD2D
:1011400001225242004BF1E7FFFFFF7F10B582B052
:10115000040000F0C3FD02000B006846FFF7C2FF69
:10116000009A019B22606360200002B010BD30B580
:1011700085B004000D0002A8FFF7E8FF029A039B68
:1011800000952000FFF7C0FF200005B030BD10B56E
:101190000400FFF717FC01002000FFF79BFF01236D
:1011A0005B426360BFF35F8F10BD10B50400FFF7B3
:1011B00009FC01002000FFF78DFF01235B42636003
:1011C00000232372BFF35F8F10BD0000034B9C46CA
:1011D000614489000160BFF35F8F704740000034B5
:1011E00010B504000120FFF707FC01002000FFF705
:1011F000EDFF10BD084B5B6A994209D8064A926A16
:10120000824207D2994201D0012002E0002000E092
:10121000002070470120FCE70040054010B50C009D
:101220000B6908009847002802D02068616810BD4B
:101230000023E36000200021F9E7000010B5002939
:101240000AD003681B7B8B4206D38068054B9C4603
:1012500061440901401810BD034B044A04483C2175
:1012600001F0C0FAFFFFFF0F9092011004E201109D
:10127000B4920110F8B504001700FFF7DFFF06680D
:10128000456839002000FFF7D9FF02684368012054
:10129000AB4201D802D00020C0B2F8BDB242FBD8A8
:1012A000F9E7000010B5002B02DB0260436010BDBF
:1012B000024B034A03483F2101F094FAA491011024
:1012C000D0E10110C091011010B582B00400049863
:1012D000059912184B41002B09DB6846FFF7E2FF26
:1012E000009A019B22606360200002B010BD0122C1
:1012F0005242014BF1E7C046FFFFFF7F10B50029C6
:1013000008D0037B8B4205D300684B005B18033B7E
:10131000C01810BD024B034A0348682101F062FA6D
:10132000EC920110ACE101100893011010B5437B61
:101330008B4201D1012010BDFFF7E0FF8378002B25
:1013400001D10020F7E70120F5E770B50400857BA7
:10135000002D01D1280070BD2900FFF7CFFF437891
:10136000A373002B00D1E3730023837043700370D9
:10137000F0E70000F8B506000C001500FFF7BEFF0F
:101380000700002C0DD0002D11D0AC4215D0290043
:101390003000FFF7B3FF84703B78002B13D13D7012
:1013A000F8BD0A4B0A4A0B486F2101F01BFA0A4BA1
:1013B000074A0848702101F015FA084B044A05480D
:1013C000712101F00FFA43703D70E9E7509301106D
:1013D00088E10110089301105C93011068930110DB
:1013E00070B506000D001400002914D0002A14D096
:1013F000436880689847002806D022002900300002
:10140000FFF7B8FF280007E02A0021003000FFF7AF
:10141000B1FF200000E0100070BD0800FCE70000F4
:1014200070B504000D1E0CD0FFF768FF0023837019
:1014300043700370617B2A002000FFF7D1FF6073C7
:1014400070BD034B034A0448A52101F0CBF9C04607
:10145000809301109CE101100893011070B5040005
:101460000D1E0FD0FFF762FF00280BD1E17B002992
:101470000ED1A37B002B03D1E37B002B0DD1A573F1
:10148000E57370BD084B094A0948F62101F0AAF935
:101490002000FFF733FF4570EBE7064B034A044893
:1014A000FB2101F09FF9C0468493011078E10110FF
:1014B00008930110A893011010B5002907D0036804
:1014C0001B7B8B4203D3C0680139401810BD034B0E
:1014D000034A0448412101F085F9C0469092011069
:1014E00064E10110B492011070B505000C00080011
:1014F00000F0EEFC0949200000F02EFCFFF762FA34
:10150000074B9C466044800068602C75D0231B0606
:101510001B786B75034BA400E55070BD05160010D9
:1015200040000034685D012010B582B0040000F076
:10153000D5FB02000B006846FFF7B4FE009A019B42
:1015400022606360200002B010BD70B584B004005A
:1015500016001D0002A8FFF7E7FF029A039B009602
:1015600001952000FFF7B0FE200004B070BD000020
:10157000F0B583B0070001921D000AAB1C780BABDD
:101580001E78002C0BD000682100FFF7CFFE00284A
:1015900009D0194B194A1A48672101F023F900684C
:1015A000FFF7D3FE0400002C02D1200003B0F0BDF1
:1015B00021003800FFF742FE019B03604560089B55
:1015C0008360099BC36038682100FFF729FFA042B0
:1015D000EBD1387D019A2B0000F006FC051E01D0EE
:1015E000002E04D00C9B002BDFD01D70DDE7386887
:1015F000210000F0B3FDF5E7BC930110B8E1011044
:10160000B4920110F0B5DE4657464E464546E0B569
:101610008FB00B900021794B8200D458894683E02B
:1016200029002000FFF70AFE804602684368921BEB
:10163000BB41002B09DD43461A685B680B9800F03C
:10164000D3FB0023984600268AE0002B01D1002A14
:10165000F1D10021584600F077FD0700A84215D1CE
:1016600043461A685B680892099343469E68DB68A4
:101670009846002E10D029002000FFF71DFF0378A8
:1016800099461B021F432761002069E05C4B5D4ABD
:101690005D488E2101F0A6F85C4B5A4A5A489221C7
:1016A00001F0A0F82369002B00D177E0BB4219D1EB
:1016B00006980799002342428B4100920193089AB1
:1016C000099B0CA8FFF700FE0C9A0D9B00210491CA
:1016D0000131039102954146019100962000FFF7E8
:1016E00047FF16E04A4B474A4748A12101F07AF8E4
:1016F000069A079B002B01D1002A52D120682900AD
:10170000FFF7ACFE29002000FFF7D6FE0378013377
:101710000370002323616268BFF35F8F13608AF355
:1017200010880120002861D00CA8FFF7FDFE0C9E58
:101730000D9F00220023089209936268EFF3108A3C
:1017400072B61368002BFCD0BFF35F8F23689B46F3
:101750005D7B002D00D063E7002398460026002023
:101760006368BFF35F8F00221A608AF31088002E2F
:10177000D8D04B461F022F4341463800B047069051
:1017800007916268EFF3108A72B61368002BFCD0E1
:10179000BFF35F8F079B002B00DA83E7079B002BCB
:1017A000A6DD2369002BA9D0BB4219D10CA8FFF7F5
:1017B000BBFE0C9A0D9B06980799009001910CA80E
:1017C000FFF782FD0C9A0D9B0021049101310391DA
:1017D00002954146019100962000FFF7C9FE98E767
:1017E0000B4B084A0848A42100F0FCFF0FB0F0BCE6
:1017F000BB46B246A946A046F0BDC046685D012082
:10180000E4930110E8E10110B4920110FC9301107F
:101810000894011010B5084B1A68EFF3108172B6E6
:101820001368002BFCD0BFF35F8F034813F0AEFFAB
:101830000020002110BDC0460072012010B50C4BE5
:101840005B68002B04D00B480A21FFF743FC10BD56
:10185000074C094A20682300102100F0E0FB032018
:1018600000F030FA03212000FFF73EFEEBE7C04610
:1018700044A00020007201207512001010B5064B24
:101880005B68002B01D0044810BD044B044A054896
:101890005E2100F0A7FFC04644A000204494011040
:1018A0004CE10110B4920110F0B5DE4657464E46A9
:1018B0004546E0B58DB0060090461F00169B9A463F
:1018C000179B994618AB1B780793272302AA9446C7
:1018D000634400221A7021E001003000FFF7ECFDA4
:1018E00000783CE00698002B5CD0079B002B59D079
:1018F0004946D04704000D0003000B4359D000298E
:1019000040DB08A8FFF710FE089A099B0094019598
:1019100008A8FFF7D9FC089B9846099F7268EFF367
:10192000108B72B6136859424B41D9B20691002B05
:10193000F8D1BFF35F8F273302AA94466344049320
:101940000023039302934B46019353460093424670
:101950003B003000FFF70CFE0400051EBCD173688D
:10196000BFF35F8F002119608BF31088002D17D013
:10197000272302AA944663441B78002BB2D10002AD
:101980002043B0E700236242AB41009201934246FC
:101990003B0008A8FFF798FC089B9846099FBDE705
:1019A000012040420DB0F0BCBB46B246A946A0465D
:1019B000F0BD0698F6E7F0B5C64600B584B0050060
:1019C000884616001F000AAB1C78FFF757FF0294E9
:1019D000019700962A004346FFF766FF04B080BCDB
:1019E000B846F0BDF0B5C64600B505000C1E42D0A5
:1019F0004268EFF3108772B61368002BFCD0BFF378
:101A00005F8FE6B22B68984631001800FFF78EFC16
:101A100000282AD02B69A34213D0240AE4B2310053
:101A20002800FFF749FD0378A34211D000206B681E
:101A3000BFF35F8F00221A6087F3108880BCB8461E
:101A4000F0BD0E4B0E4A2C210E48FF3100F0CAFEAD
:101A50003100404600F082FB0028E8D10A4B084ADA
:101A600099210848490000F0BDFE2B69A342DED150
:101A700000232B61DBE70020E0E7C04668940110FB
:101A800034E10110B49201108C94011010B50400DF
:101A9000FFF7F4FE2100FFF7A5FF10BD407D704762
:101AA000F0B587B00500100019000E9C13000B4321
:101AB00001D101200021A5600C9B236120606160A1
:101AC0000D9B6361CE1737007040020071400B0020
:101AD000921BBB4104A8FFF738FD049A059B012126
:101AE00002910194044900912800FFF7DDFEE060B7
:101AF000C043C00F07B0F0BD1D12001030B587B055
:101B000004000D00EFF30583002B20D196225242F2
:101B1000D31712196B418B4202D803D1824201D9EB
:101B20000022002304A8FFF7BDFB02A8FFF7FCFC7E
:101B300002980399049A059B121A8B41002B0BDC27
:101B400008D02000290000F0D5F807B030BD1148BA
:101B500000F0E0FE002AF4D00F4A04980599002313
:101B60000093FFF728FF00280DDAEAE70B4B1A680D
:101B7000EFF3108172B61368002BFCD0BFF35F8FB8
:101B8000064813F09DFD04980599FFF733FB0028E4
:101B9000ECD0D6E7909401101518001000720120C7
:101BA00000B583B002000B006846FFF7CEFC00983A
:101BB0000199FFF7A3FF03B000BD10B5FA22920010
:101BC0000023002102F02EFFFFF7EAFF10BD000006
:101BD00030B583B005000C00EFF30583002B0FD167
:101BE0000B4A00230093FFF7E6FE00280BDD20BF21
:101BF000FFF74CFF28002100FFF7FCFA03B030BDCF
:101C0000FFF7F8FAFAE728002100FFF7F3FAF5E703
:101C10001518001010B5002B02DB0260436010BDE8
:101C2000024B034A03483F2100F0DCFDA491011060
:101C300034E20110C091011070B5EFF30580103847
:101C4000EFF3108C72B6194B1B68002BFBD0BFF35F
:101C50005F8F01221300834015494B6315490B60C8
:101C6000154909780C00C440224213D0104A546A26
:101C7000124A8500AA58944205D3114AAA580E4C1C
:101C80009943217007E00A4A031D9B009958995017
:101C9000002200E00022BFF35F8F044B0021196097
:101CA0008CF31088002A00D0904770BD280100D026
:101CB000004005403C700540E07303200C72012099
:101CC00060AB002010B50100024A034B1800FEF77C
:101CD00007FE10BDE0940110CF730320044B5B6A34
:101CE000034A906A1900536A9942F9D17047C04675
:101CF00000400540084B5B6A01E0074B5B6A8B4282
:101D0000FBD301E0044B5B6A8B4203D1024B9B6A1D
:101D10008342F7D37047C04600400540F0B583B01A
:101D200004000D00FFF7DAFF06000F0022002B0071
:101D300092197B41994202D804D1904202D90122E2
:101D40005242D3176846FFF765FF00980199FFF7E5
:101D5000D1FF03B0F0BD000070B504000E00EFF33A
:101D6000108572B61B4B1B68002BFBD0BFF35F8F37
:101D7000002E1CD02000FEF7EDFE174B83420BD047
:101D800019002000FEF700FF01212000FEF7D2FE1F
:101D90000123A340114A1360114BA400E650BFF386
:101DA0005F8F0C4B00221A6085F3108870BD0C4BBE
:101DB000A2000021D1500122A2400A490B7893438E
:101DC0000B7005492000FFF711F800212000FEF7F5
:101DD000B1FEE4E7280100D0391C0010386005404E
:101DE00060AB0020E0730320F0B5DE4600B584B0A0
:101DF0000400150001921E000293FFF76FFF039588
:101E00008E4202D84ED185424CD9EFF3108B72B678
:101E1000274B1B68002BFBD0BFF35F8F254A177839
:101E20000125A540EBB23B431370234B5D63221D9C
:101E300092000199D150214AA100029888501B6A52
:101E40002B4212D11C4B1B6C2B4208D00020BFF33D
:101E50005F8F174B00221A608BF3108823E0184B1A
:101E6000184A1948C52100F0BDFCFFF737FF8E4224
:101E700014D802D1039B834210D80E4B1B78BB426F
:101E80000ED00D4B1D625D631F2222400123934043
:101E90000E4A1360074B1F700120D8E70020D6E7D9
:101EA0000120D4E7012004B080BCBB46F0BDC04691
:101EB000280100D0E0730320004005400C7201208F
:101EC0000495011018E201102895011080E200E04D
:101ED000EFF3108C72B60B4B1B68002BFBD0BFF3DB
:101EE0005F8F01238340084A136208490A789A43A6
:101EF0000A70BFF35F8F034B00221A608CF31088C7
:101F00007047C046280100D000400540E073032020
:101F100010B5002908D0037B8B4205D300684B0025
:101F20005B18033BC01810BD024B034A03486821ED
:101F300000F058FCEC9201108CE2011008930110A3
:101F4000F8B506000C001500FFF7E2FF0700002CB3
:101F50000DD0002D11D0AC4215D029003000FFF774
:101F6000D7FF84703B78002B13D13D70F8BD0A4B2E
:101F70000A4A0B486F2100F035FC0A4B074A084813
:101F8000702100F02FFC084B044A0548712100F035
:101F900029FC43703D70E9E75093011078E201108D
:101FA000089301105C9301106893011070B506004E
:101FB0000D001400002914D0002A14D04368806852
:101FC0009847002806D0220029003000FFF7B8FF0C
:101FD000280007E02A0021003000FFF7B1FF2000B1
:101FE00000E0100070BD0800FCE770B5050000239C
:101FF000437301338373037BC373012406E0210021
:102000002800FFF785FF0134E4B24470297BA14228
:10201000F5D82800FFF77CFF0023437070BD10B592
:10202000017342608360FFF7E0FF10BDF0B5C64664
:1020300000B505000C1E03D1200080BCB846F0BDE1
:10204000FFF766FF4678002EF6D031002800FFF734
:102050005FFF477800239846437021002800FFF770
:1020600057FF43464370320021002800FFF79EFFD0
:10207000040039002800FFF7D9FF020021002800E2
:10208000FFF794FF0400D7E7F0B5C64600B504009B
:102090000D001700002927D0FFF73AFF4378002BE7
:1020A00028D18378002B2BD101782000FFF7BEFFC9
:1020B00006008046002F0AD0E17B002926D1A37BB1
:1020C000002B03D1E37B002B25D1A573E573434699
:1020D000002B26D129002000FFF71AFF00234370B0
:1020E000300080BCB846F0BD114B124A124838216E
:1020F00000F078FB114B0F4A0F483A2100F072FBB9
:102100000F4B0C4A0C483B2100F06CFB2000FFF702
:10211000FFFE4570D3E70B4B064A0748422100F00B
:1021200061FB31002000FFF7F3FE00238370D1E74D
:102130006895011064E2011070950110A8950110D6
:10214000D0950110A893011070B504000A00457BDA
:102150002900FFF799FF6073280070BD70B5060075
:102160000C1E40D0437B8B4207D0FFF7D1FE050009
:102170008178002906D1002036E00121FFF7E4FF35
:10218000012031E03000FFF7C3FE0178A1420DD0FD
:102190003000FFF7BDFE4178A1420AD00029F7D1F7
:1021A000124B134A13486B3100F01CFB6B78037021
:1021B00001E06B7843700023AB706B70012221004B
:1021C0003000FFF761FF0200717B814205D03000D3
:1021D000FFF7ECFE7073012006E0074B044A054848
:1021E000712100F0FFFA002070BDC04680910110FF
:1021F0004CE2011070950110F495011070B5046B5C
:10220000E30701D4200070BD02003032C0239B01DF
:1022100013430A4A1A60456A836AAD01ED18AD029C
:10222000062000F0BDF9064901F0D0FC01002800AD
:1022300001F0CCFC0021FFF771FDE3E70103000092
:102240004E0E000070B504000E001500FFF7D6FF1B
:1022500022002C32E36A5E40354080235B01134349
:102260001D60206370BD000070B505000C000620E5
:1022700000F096F9C000210001F0A8FCC60908D0C2
:102280000E4B9E4216D87F230340013334005E0874
:1022900000E001246C62AE62002200212800FFF7FA
:1022A000D1FF062000F07CF98000A101891901F01E
:1022B0008DFC70BD0026024CECE7C046FEFF00001E
:1022C000FFFF000010B505394901013AD200114362
:1022D000002B09D002220A43012B07D00021114311
:1022E0006E22FFF7AFFF10BD0022F4E70421F6E7EE
:1022F000002909D00A22064B9C46604443425841BB
:10230000044B4000C252704780225200F3E7C0469F
:102310000080FCBF5072012070B505000C00062043
:1023200000F03EF9061E27D0164B9D4226D0802293
:10233000D203154B1A60154B1A60154B9B681100A0
:102340009943FAD100212800FFF7D2FF210028008D
:10235000FFF78AFF06000023012208212800FFF76B
:10236000B1FF2A002C3280239B01134310221A60F4
:10237000084B2B630323AB64300070BD8022120432
:10238000D7E7C0460080034000E0004000F0004076
:1023900000C0004001030000F8B5DE4657464E4637
:1023A0004546E0B506000F0015000A9A934250D347
:1023B0001A0E92461B0298460A9A0023404651463E
:1023C00001F042FC81467400A419A4002F4B9C46E6
:1023D00064446368834200D26060331FDBB29B4673
:1023E000012B3CD9C0239B012343802212011A6098
:1023F000274BB200D158002907D0586901F0E6FBFD
:10240000013043001B18033BFDD26D0123685D4082
:10241000E0222A4080235B0123431A605A46012AA6
:1024200028D980239B012343802212011A604B4646
:1024300063604A4600234046514601F005FC144BB8
:10244000B60098510120F0BCBB46B246A946A04652
:10245000F8BD104B104A1148332100F0C3F9012F89
:10246000C0D1C0239B01234303221A60A368DB076A
:10247000FCD5CAE72168794003220A401A60A368A4
:102480000125BD401D42FAD0CBE7C0460080004088
:1024900084AD00201496011098E2011028960110D6
:1024A00030B583B00C2000F011F9FEF7F9F90028DF
:1024B0000DD0002304E02E4A99002E4888500133A5
:1024C000092BF8D92A4B2C4A5A6203B030BD2B4B4A
:1024D00000229A6700F06CF9294B01221A60274B01
:1024E0005B6C012BFBD1274B03221A60234B9B6BA8
:1024F000012BFBD1013300930433234A01212348EC
:1025000000F054F805230093214A0121214800F0EE
:102510004DF8214B0093002202210420FFF73CFFDD
:102520001E4D00952B00002201210520FFF734FFEE
:10253000104C00942300002200210720FFF72CFFFD
:1025400000942300002200210820FFF725FF0A4BFA
:1025500000932300002200210920FFF71DFF0095B2
:102560002B00002200210620FFF716FFADE7C04632
:1025700084AD0020006CDC021BB70000008000402E
:102580003CB0004030B00040002F6859008002404D
:10259000008C864700C00240001BB70040597307FB
:1025A000014B8000C058704784AD0020F0B5C6468E
:1025B00000B504000E0017001D00374801F006FBAF
:1025C0008046364BFA18364B9A4239D8010038000B
:1025D00001F0FCFA0200103A98235B009A4235D8C9
:1025E0006B1E062B38D8069B013B062B34D83F09BF
:1025F000474537D32D04069B1B031D432368002B3F
:1026000036DB284B9C4244D080235B01264A136072
:10261000264A1360264A926819009143FAD126602F
:10262000A060221DC0239B01134321221A6022684F
:10263000002AFCDAE56008221A6080BCB846F0BDCA
:102640001C4B1D4A1D48112100F0CCF81C4B1A4AA6
:102650001A48192100F0C6F81A4B174A17481C21CE
:1026600000F0C0F8184B144A1448232100F0BAF8BF
:1026700022683F231340B342C3D1A3681B051B0D3F
:102680008342BED1E368EE22D2021340AB42B8D1FE
:10269000D3E780239B01B9E7001BB70080E84BD349
:1026A00080F8A93200C0024000E0004000F0004085
:1026B00000C000406C960110A8E20110CC960110F9
:1026C00008970110249701107097011080239B0038
:1026D0000343014AD362704700800540024B1A68E9
:1026E000024B5A607047C046C0C0002000800540C1
:1026F00010B5174B8022D2051A60164B164A1A6085
:1027000000290AD0154BE022D2041A60002809D112
:10271000124B802212061A6010BD0D4BE022D2042B
:102720001A60F3E743011B1A9B00181800010C4BB9
:10273000186080235B04984202D3094B094A1A604F
:10274000FFF7CCFF054B8022D2051A60E4E7C046B4
:1027500000B0054008200140FCFF010000A005403A
:10276000C0C00020FFFFFF0010B5030010000C4A9E
:102770008024E4051460002B0DD001221343094A84
:10278000094CD461094C5C4014625162936200218F
:10279000FFF7AEFF10BD034B0022DA61F7E7C0463A
:1027A00000B0054000800540D3C007B02D3FF84F72
:1027B000064BAA2212011A602F22DA60044B054A46
:1027C0001A60024B5B68002BFBDA70470040024046
:1027D0000060024000B0FA0000BEFDE710B5FFF750
:1027E000FBFF000030B583B00D001900002A0BD0AC
:1027F000074B084C019200932B000200200002F0CE
:1028000071FB0120FFF7E8FF034B1A00F1E7C04618
:102810008C9701109C970110F8C9011070B52B4BD3
:102820002B4A1A602B4B2C4A1A602C4B9A682A4B65
:102830009343FAD12A4C01E008CC9847294B9C429B
:10284000FAD3FFF72DFE234B274A1A60234B9B68D0
:10285000DB43DB01FAD1254B40229A675A671A679E
:10286000DA66234C09E0234B234A24488721FFF7EB
:10287000B9FF2000FEF78BFC0834214B9C4209D2A3
:102880002368002BF5D0012BEDD12000FEF78DFC45
:102890000C34F2E71B4DA9681B4CC022200002F04B
:1028A00091F9AC60EFF30583002B00D000BEFEF77A
:1028B00079F8FEF7EBFBFEF7C1FF144C01E008CC02
:1028C0009847134B9C42FAD370BDC04600E00040CD
:1028D000BFCDFBFE00F00040FE7F3C0000C000408A
:1028E00064A5002074A50020FFFFFF0100F0014057
:1028F00054A50020CC970110B4E20110EC97011010
:1029000064A5002000ED00E00000002074A5002078
:1029100084A500200FB400B583B0084802F0B2FAD5
:10292000049B002B07D005A90191180002F0BAFA08
:10293000034802F0A7FA0120FFF74EFF2C98011080
:1029400094CC011010B50148FFF7E4FF3C9801104A
:10295000704710B5002802D00B684968984710BD31
:102960000100002007E083001B185B00501C08607A
:102970001078C01830380A681378303BDBB2092B66
:10298000F1D97047F0B5DE4657464E464546E0B5AC
:1029900083B093461F000C9B9A460D9C0E9B994654
:1029A0000F9B9B0703D0B8460F00060022E0019260
:1029B000A34688464E46B9460700B44207D2551C86
:1029C0004B4641462020B84701342A00F5E73D0038
:1029D0004F465C46019B9B46B1464646B84637008B
:1029E0002E0007E0013C551C5346185D4346390054
:1029F000B0472A00002CF5D135003E0047460F9B1A
:102A00009B0707D4100003B0F0BCBB46B246A946F2
:102A1000A046F0BDB0464E46B9462F005D46531B5A
:102A2000B342EFD2541C4B4641462020B847220007
:102A3000F5E7F0B5CE46474680B585B09446984652
:102A40000C9D0D9C0EAB1B789946109A119B129E03
:102A5000B7071CD4002B0CD0F7070AD54F46002F20
:102A600002D10C37374204D0013B02E030272F550A
:102A70000134944201D21F2CF8D9F70707D59C42A4
:102A800005D21F2C03D830272F550134F5E7F70660
:102A900012D5770505D4002C03D0944221D09C4256
:102AA0001FD00F9A102A32D00F9A022A37D01F2C2B
:102AB0000AD830222A5501341F2C05D84A46002A4C
:102AC00033D02D222A5501340396029301940095A8
:102AD00043466246FFF756FF05B0C0BCB946B04654
:102AE000F0BD621E012C10D00F9F102F0BD01400D0
:102AF0000F9A102AD8D1B206D6D51F2CD4D8582276
:102B00002A550134D3E7023CCBE71400C9E7B206EB
:102B1000EED41F2CECD878222A550134C7E71F2C9D
:102B2000D2D860322A550134C1E7720703D52B226F
:102B30002A550134C8E73207C6D520222A55013468
:102B4000C2E7F0B5DE4657464E464546E0B593B07F
:102B500081468A46089209931CAB10CB1B789B4692
:102B60001E9D219B9846002C03D1102342469A4378
:102B700090468023DB0046461E4042461A4212D051
:102B8000002C22D000260EE03033D9B2771C0AABDD
:102B900099552900200001F019F8AC4216D31F2FD7
:102BA00014D83E0004002900200001F00FF8CBB239
:102BB000092BE9D94246920605D54121C918C9B267
:102BC0000A39C9B2E2E76121F8E7270043460693D4
:102BD000209B05931F9B049303955B4602930197EB
:102BE0000AAB0093099B089A51464846FFF721FF1C
:102BF00013B0F0BCBB46B246A946A046F0BDF0B546
:102C0000DE4657464E464546E0B597B00A900B91D2
:102C10000C929A46209B9946219F22AA13789B46A4
:102C2000249B0993259C289B98464A463A4302D107
:102C30001032934398468022D200454615404346C1
:102C400013420AD04A463A4341D000252E0053464B
:102C50000D934D46099B9A461BE02E0053460D935B
:102C60004D46099B9A4614E03033DAB2731C9946FC
:102C70000EAB9A55524623002800390000F0E4FFBD
:102C8000BC4226D819D04B461F2B1CD84E460500F7
:102C90000F00524623002800390000F0D5FFD3B2C0
:102CA000092BE1D94246920605D54122D218D2B26B
:102CB0000A3AD2B2DAE76122F8E7AA45E3D94E46EA
:102CC0000D9B9A4608E04E460D9B9A4604E000266E
:102CD00002E04E460D9B9A4643460693279B05937A
:102CE000269B0493099B03935B46029301960EABCC
:102CF000009353460C9A0B990A98FFF79AFE17B067
:102D0000F0BCBB46B246A946A046F0BDF0B5DE46D3
:102D100057464E464546E0B591B0804689460C92EE
:102D20009A461A9C1B9D22002B002000290001F0CE
:102D30000EFA002800D0ECE001225242D44B2000D1
:102D4000290001F0FFF9002800D0E2E00122524200
:102D5000D04B2000290001F0DFF9002800D0D8E096
:102D6000002200232000290001F0D6F9002800D01D
:102D7000E4E0069407958023DB001E9A1A400D922A
:102D80001E9A1A4201D106231C9306980799020045
:102D90000B000892099303000A00024300D1D9E016
:102DA000080D4005400DBC4EB44660440A03120BAA
:102DB0001E00BA4B13431F0001F0DCF9B84AB94BAF
:102DC00001F063F9B84AB94B01F040F90890099154
:102DD0000022B74B3000390001F033F9B54AB64B49
:102DE00001F053F902000B000898099901F02EF93F
:102DF00001F0D8F9834601F0BDF906000F00AF4A93
:102E0000AF4B01F042F90022AE4B01F01FF901F087
:102E1000C9F90890AC4AAD4B3000390001F035F9E2
:102E200006000F00089801F0A5F9A94AA94B01F086
:102E30002CF902000B003000390001F002F9060005
:102E40000F0002000B0001F020F90A900B91089B83
:102E5000A14A9446634400210022089109921B056F
:102E600009930023089332003B003000390001F041
:102E7000EDF80E900F9132003B0000208021C90533
:102E800001F0DFF806000F000022944B0A980B991E
:102E900001F0E1F80022924B01F0D8F802000B009B
:102EA0000A980B9901F0D7F800228E4B01F0CEF86A
:102EB00002000B000A980B9901F0CDF802000B00FC
:102EC0003000390001F0C2F802000B000E980F9993
:102ED00001F0C1F80022714B01F0B8F8089A099B83
:102EE00001F0D3F806000F0008960997069A079B91
:102EF00001F028F900282FD001235B429C46E344CF
:102F00000022774B3000390001F0A5F808900991B4
:102F100022E01E9B04931D9B03931C9B0293009431
:102F2000019553460C9A4946404600F0FFF811B00F
:102F3000F0BCBB46B246A946A046F0BD0021002227
:102F400006910792069480231B069C46AC44634678
:102F5000079310E700239B465B466333C62B20D8BC
:102F600004261E9B1B0528D5089A099B19001143AE
:102F70000FD05D4A5D4B0698079901F0DBF80028F9
:102F80007AD000225A4B0698079901F0C5F800281C
:102F900072D01C9B5B4506DD5A469B1A013B1C9375
:102FA00003E00526DDE700231C938023DB001E9A47
:102FB0001A431E92002600239B461D9B9E4265D20B
:102FC0009F1B02231E9A1A400A921E9A134202D095
:102FD000002E00D000275B46002B07D0089A099BE3
:102FE0000698079901F037F8069007910022002310
:102FF0002000290001F090F8002800D07CE03D4B33
:103000001E9A1340049303971C9B0293069B079CF4
:103010000093019453460C9A4946404600F086F8C6
:10302000002E00D183E71E9B9B0671D54525441CCD
:103030005346020049462800C0475A46D317D218C3
:103040005A4005230593013E0496002303930A3357
:1030500002935B46DB0F01930092534622004946E0
:103060004046FFF76EFD0A9B002B00D15FE7020090
:1030700047460C9E1D9D53E01C9B002B9DD00D9B35
:10308000002B9AD01C9B013B1C9396E7002798E7E6
:10309000FFFFEF7FFFFFEFFF01FCFFFF0000F03FAE
:1030A000FB799F501344D33FB3C8608B288AC63F37
:1030B0000000F83F61436F63A787D23F71A379098E
:1030C0004F930A400000E03F1655B5BBB16B02407C
:1030D000EF39FAFE422EE63FFF03000000002C40CD
:1030E00000002440000018402D431CEBE2361A3F3C
:1030F00080842E41FFF7FFFF069C079D22002900D8
:1031000080200006844661440B000692079376E710
:1031100065258CE7541C534649462020B8472200B9
:10312000931BAB42F6D3100001E7C046F0B5DE4674
:1031300057464E464546E0B595B0069007919346F2
:103140009946209F1E9A1F9B1000190000F0FFFF58
:10315000002831D101225242BF4B1E981F9900F026
:10316000DBFF002837D101225242BC4B1E981F9929
:1031700000F0E8FF00283DD10022B94B1E981F99AE
:1031800000F0E0FF002850D10022B64B1E981F9996
:1031900000F0C2FF002848D1002200231E981F998A
:1031A00000F0BAFF002850D100239846229B5B050F
:1031B00000D4B6E0002458E0229B0393219B0293A5
:1031C00003230193A84B00934B465A460799069850
:1031D000FFF7D8FB0EE1229B0393219B029304236C
:1031E0000193A24B00934B465A4607990698FFF766
:1031F000C9FBFFE00423229A1A4022990B4210D007
:103200009B4B002A0FD0042222990391219902910D
:10321000019200934B465A4607990698FFF7B2FB76
:10322000E8E0944BEDE70322EEE7229B0493219B19
:10323000039302971E9B1F9C009301944B465A4692
:1032400007990698FFF762FDD4E01E9A1F9B0020A5
:10325000002100F0F6FE1E901F9101239846A5E77D
:103260000CAB30221A55013F01341F2C01D8092F15
:10327000F6D81E981F9900F095FF050000F07AFF20
:1032800002000B001E981F9900F0DBFE7A4BFA003B
:103290009B181A685B680A920B9300F0F6FE089080
:1032A000099100F0A3FF060000F060FF02000B0090
:1032B0000898099900F0C5FE0890099100226F4B0B
:1032C00000F040FF00282ED00136300000F04EFF05
:1032D00002000B000A980B9900F024FF002801D08F
:1032E00001350026002F2CD1280000F043FF0200FA
:1032F0000B001E981F9900F0A4FE06000F0000228C
:103300005E4B00F009FF002846D100225B4B3000E5
:10331000390000F017FF00283ED1EB073CD50135FE
:103320003AE0062746E70022544B0898099900F036
:10333000F3FE0028D6D1002E01D0F307D2D50136F6
:10334000D0E7AA461F2C11D8013F0A21300000F017
:103350003DFC651C30310CAB19550A21300000F0E2
:1033600035FC092E0ED906002C00EBE755461F2C24
:103370000CD87B1E002F09D00CAA302111551F003C
:103380000134F4E72B0055461C00F0E71F2C03D84E
:103390000CAB2E221A5501341F2C10D80A212800FC
:1033A00000F0ECFB661C30310CAB19550A212800EB
:1033B00000F0E4FB051E01D03400EDE734000323E8
:1033C000229A1340012B1CD01F2C06D84346002BF9
:1033D00032D00CAB2D221A550134229B0393219B32
:1033E000029301940CAB00934B465A4607990698FA
:1033F000FFF7C8FA15B0F0BCBB46B246A946A046D6
:10340000F0BD219B002B13D04346002B02D10C337F
:1034100013420FD0219B013B2193190003E00CAB19
:1034200030221A5501348C42CED21F2CF7D9CBE76B
:103430002199F8E72199F6E7229B5B0704D50CABAD
:103440002B221A550134C8E7229B1B07C5D50CABAC
:1034500020221A550134C0E7FFFFEFFFFFFFEF7F87
:1034600065CDCD4165CDCDC1589801105C98011056
:103470004C9801105498011060E401100000E03FE6
:10348000F0B5DE4657464E464546E0B593B0824617
:10349000884693461193002900D10DE30025564636
:1034A000119B1878002800D109E3252809D06C1C4D
:1034B0005B462A004146B047119B0133119325001A
:1034C000EEE701331193002720E001231F4301326F
:1034D0001192012418E002231F43013211920124AA
:1034E00012E004231F430132119201240CE008234F
:1034F0001F4301321192012406E010231F430132C1
:103500001192012400E00024002C09D0119A1378B4
:10351000203BD9B21029F6D88B00C849CB589F461A
:10352000119B1A781300303BDBB2092B10D92A2AE1
:1035300013D00B94119B1A782E2A1ED0119A13784F
:10354000683BD9B2122959D88B00BD49CB589F4648
:1035500011A8FFF705FA0B90ECE71C9B1A1D1C92B3
:103560001B68002B04DB0B93119B01331193E1E7E4
:10357000022217435B420B93F6E78022D2001743E7
:103580005A1C11925A781300303BDBB2092B0BD92D
:103590002A2AD3D11C9B1A1D1C921C68002C08DB04
:1035A000119B01331193C9E711A8FFF7D9F9040062
:1035B000C4E70024F4E780235B003B43511C1191D6
:1035C00051786C2901D01F0018E0C0239B001F43D5
:1035D0000232119212E080233B43511C1191517829
:1035E000682901D01F0009E0C0231F430232119255
:1035F00004E080235B001F4301321192119B187875
:10360000672818D8252800D24CE20300253BDAB2FF
:10361000422A00D946E293008A4AD3589F46802323
:103620009B001F4301321192E8E780235B001F4398
:1036300001321192E2E7782800D933E2692800D2FA
:1036400030E20200693AD2B2012393407E4A13422B
:1036500011D11A0600D500E25B0500D422E21C9BC2
:103660001A1D1C921B689A46002C00D0B2E1012260
:10367000524253468EE16F280ED006D858283DD0CE
:10368000622804D102239C4608E0782839D0102310
:103690009F43063B9C4601E008239C46582833D0B4
:1036A000692803D0642801D00C2297437A0501D5FC
:1036B0000122974369282AD0642828D0BA0500D56A
:1036C0009FE0FA0500D5C1E07A0600D4D3E01C9A49
:1036D000111D1C911168FF220A4005970B9B049352
:1036E0000394634602930023019300925B462A00F1
:1036F00041463000FFF725FA050027E010239C46DD
:10370000CCE710239C46C9E720221743C8E7BA0537
:1037100020D4FA0550D47A0666D51C9A111D1C9146
:103720001168FF220A40D0171118414005970B9BE2
:103730000493039463460293D20F019200915B4677
:103740002A0041463000FFF7FCF90500119B0133C8
:103750001193A5E61C9A073207218A43110008310C
:103760001C91116853689946DB170C930D930C9AC2
:103770000D9B100048400E904A4653400F930E9800
:103780000F990C9A0D9B801A99410E900F910897F2
:103790000B9B0793069463460493002305934B46C3
:1037A000DA0F0292009001915B462A0041463000F8
:1037B000FFF725FA0500C9E71C9A111D1C91126834
:1037C000D0171118414005970B9B0493039463464F
:1037D0000293D20F019200915B462A0041463000CD
:1037E000FFF7AFF90500B1E73A0605D51C9A111DA0
:1037F0001C910023D25E96E71C9A111D1C91126841
:1038000091E71C9A073207218A43110008311C9165
:1038100008970B9B07930694634604930023059334
:10382000029353681268009201935B462A00414656
:103830003000FFF7E4F9050088E7C046C4E2011054
:1038400008E3011054E30110419000001C9A111D7F
:103850001C9105970B9B04930394634602930023EA
:103860000193136800935B462A0041463000FFF73E
:1038700068F905006AE73A0606D51C9A111D1C91E5
:1038800012681204120C28E71C9A111D1C91126870
:1038900023E7462819D01C9B0733072293431A00BD
:1038A00008321C9204970B9A039202941A685B6880
:1038B000009201935B462A0041463000FFF736FC38
:1038C0000500119B01331193EAE520231F43E2E732
:1038D000672801D0472802D180231B011F434528B8
:1038E00001D0472801D120231F431C9B0733072207
:1038F00093431A0008321C9204970B9A0392029485
:103900001A685B68009201935B462A0041463000CA
:10391000FFF7FCF90500119B01331193C0E5022369
:103920001A003A4091463B421DD001241C9B1A1DAF
:103930001C926F1C18785B462A004146B0474B46E4
:10394000002B14D1119B013311933D00A8E5571CA6
:103950005B4641462020B04723003A005C1C9D4254
:10396000F5D81500E2E701232A000B9DF6E73A009F
:10397000B1460B9E06E0571C5B4641462020C847D7
:103980002C003A00651CA642F5D817004E46D9E730
:1039900001330A001978002902D0511E002AF7D1FC
:1039A00052469B1A8022D2003900114089461742A4
:1039B00002D0A34200D92300022211003940109105
:1039C0003A4209D02A00250057469A4633004E460F
:1039D000994621E022004CE62A004546A04606E032
:1039E000541C5B4629002020B0473B0022005F1C8E
:1039F0000B999942F4D84446A8463B002500574607
:103A00009A4633004E46994606E01D000137541C85
:103A10005B464146C84722003878002804D0002E73
:103A2000F4D06B1E002DF0D1150053464E46109A6F
:103A3000002A03D1119B0133119331E50B9F2A001A
:103A400006E0551C5B4641462020B04723002A0073
:103A50005C1C9F42F5D81500ECE721233B431C9AE0
:103A6000111D1C91126805930823049303940833D5
:103A700002930023019300925B462A0041463000E6
:103A8000FFF75FF80500119B0133119308E56C1CEB
:103A90005B462A0041462520B047119B0133119314
:103AA0002500FDE46C1C5B462A004146B047119B93
:103AB000013311932500F3E40A4B9A46EEE4B24633
:103AC0005D450DD35B465A1E5B4641460020D047FC
:103AD000280013B0F0BCBB46B246A946A046F0BDD4
:103AE0002A00F1E75129001000B585B0029003913A
:103AF00001210448009313004A4202A9FFF7C0FCC9
:103B000005B000BD5329001001480421014B18479E
:103B100070A00020453B0010014B9B681847000037
:103B200070A0002010B5010018231B8814221088F3
:103B3000984710BD10B5010018231B881622108865
:103B4000984710BDF0B5C64600B507000E00002529
:103B50000123984600E00135B5420AD2AC003C1979
:103B60002068FFF7DFFF20600028F4D1002398468B
:103B7000F1E7404680BCB846F0BD0000124A936FA2
:103B80009B0815D29066D166002905D0FFE7FFE7B4
:103B9000FFE7516F106F704704B580210906C21707
:103BA0005140002800D0C84315F0BAF8002104BDE8
:103BB000F0B5146E556E576F166FFFF7E3FF14667E
:103BC000556657671667F0BD000000D0114A936F25
:103BD0009B0813D210665166002905D0FFE7FFE766
:103BE000FFE7516F106F704704B5002801D0002027
:103BF000C04315F095F8002104BDC046F0B5146E21
:103C0000556E576F166FFFF7E5FF146655665767D9
:103C10001667F0BD000000D094464A4A926F9208A1
:103C2000624601D228E0C046F0B5464E346E756E4D
:103C3000776F366F00F020F89446424A1466556656
:103C4000576716676246F0BD94463E4A926F9208E7
:103C5000624601D254E0C046F0B53A4E346E756EFD
:103C6000776F366F00F04CF89446364A1466556606
:103C7000576716676246F0BD002B24DB11D0002980
:103C80003EDA00B5C943404200D1013100F038F8B6
:103C9000C943404200D10131DB43524200D10133DC
:103CA00000BD002AEBD1002801D1002905D0002059
:103CB000C90FC90701D1C043410800B515F018F874
:103CC0000022002300BD00B500290ADBDB4352427D
:103CD00000D1013300F014F8C943404200D1013152
:103CE00000BDC943404200D10131DB43524200D103
:103CF000013300F005F8DB43524200D1013300BD2F
:103D0000002923D1002B18D1002A0CD0BC460D4F1E
:103D100038667A6600210023FFE7FFE7FFE77A6F46
:103D2000386F67467047002801D00748010000B58A
:103D300014F0DEFF0022002300BD02000B00002073
:103D400000217047000000D0FFFFFFFF002B00D0D4
:103D5000BFE0130C28D1002AE7D080B4114F396698
:103D60007A66FFE7FFE730B4040C7B6F396F1B0402
:103D700023433B667A66FFE7FFE7FFE7C04684B26E
:103D80007B6F3D6F1B0423433B667A66FFE7FFE7CB
:103D9000C04600232C042D0C7A6F386F001969413E
:103DA000B0BC7047000000D0F0B594460025140E5A
:103DB00001D112020835140F01D112010435940FFC
:103DC00001D192000235D40F01D152000135D40B3C
:103DD0000134254F7C66254C3C660E0C93B2FFE700
:103DE000FFE7FFE73C6F6643360C7703BE4673433D
:103DF000DF0B5B04C01AB941130C7343DB18C91AFB
:103E0000CE086643360CB64493B273431F0F1B01B2
:103E1000C01AB941130C73431F0B1B05C01AB941DB
:103E2000860D8F023E436643360C092D24DB520A71
:103E30007243801A7703460A6643360C16235B1BCF
:103E4000DE40DF40BF1964466643821B704604357E
:103E500006330100D940A840C01900D30131A24265
:103E600006D20023F0BD0000000000D0FFFFFFFFDE
:103E7000121B0130F3D3F1E709277F1BFE40644694
:103E8000A2B27243801A00D20139220C7243130C81
:103E90001204821A99410B00704604351337010051
:103EA000F940A840801900D30131002B02D1A24271
:103EB0000AD2F0BD013000D30131121BFAD2013B0E
:103EC000F8D1A24200D2F0BD013000D30131121B63
:103ED000F7E7F0B51C0C00D080E00CB400251C0AFC
:103EE00004D11B02160E3343120208351C0B04D1F9
:103EF0001B01160F3343120104359C0B04D19B00A8
:103F0000960F334392000235DC0B02D192185B41CD
:103F100001351C00971864410134464F7C66464CBD
:103F20003C660E0CFFE7FFE7FFE7C0463C6F6643C9
:103F3000360C7703BE4697B27743C01B00D20139D7
:103F4000C01B00D201399FB27743C91BC91B170C94
:103F500077437E04FF0B801BB941CE086643360CC5
:103F60000C2D33DBB644120B1F053A431B0B97B2E3
:103F70007743C01B00D201399FB27743C91B170C8E
:103F800077433E043F0C801BB941860D8F023E43B0
:103F9000664329277F1BFE400C3D7746AF40BF1983
:103FA00030BCA2B2ABB272437343801A9941220C67
:103FB0007243130C1204801A994102000B0001375E
:103FC000001BA941F9D2781E0021F0BD0C277F1BF0
:103FD000FE4077467F0BAF40FF19E0E700245D1CF1
:103FE00007D0144F7D663966FFE7FFE7FFE7FFE77D
:103FF0003C6F95B29EB265436643401BB141150CC0
:104000001E0C6543664336042F0C3E432D04401BB3
:10401000B141994204D202000B0020000021F0BD02
:1040200001D19042F7D3801A994101349942F2D3D9
:10403000F6E70000000000D0FFFFFFFF48404140CE
:10404000484018B4134B5B68019308BD18B4114B7A
:104050001B68019308BD94460F4A926F920805D2DF
:10406000624618B40B4BDB68019308BD0A4AF0B5F1
:10407000146E556E576F166F6246FFF7F2FF064AD1
:104080001466556657671667F0BD18B4014B9B68F8
:10409000019308BDF86F0120000000D0FFB550402B
:1040A0004240504059404B40594000E0FFB5154F49
:1040B0004C00640D03D0BC4204D10C0314D8002082
:1040C000090D09055C00640D03D0BC4204D11C033A
:1040D0000AD800221B0D1B0501264B4009D44B407A
:1040E00003D58B4200D18242FFBD9942FCD1904260
:1040F000FFBD0B43DB1803431343F5D0C9434918F5
:10410000FFBD0000FF07000000B5FFF7CFFF01D0A3
:10411000002000BD012000BD00B5FFF7C7FF8041B2
:1041200000BDC04600B5FFF7C1FF01D9002000BDAA
:10413000012000BD00B5FFF7B1FF01D9002000BD8F
:10414000012000BD00B5FFF7A9FF804100BD01209F
:1041500040054A00121804D85A00121801D800204D
:1041600070470120704700207047000000210028A0
:1041700005D17047C1174840401AFAD0C90713B596
:10418000064B1B6898470CBC441CA2401005120B40
:104190000349091B09051943114310BDFC70012097
:1041A0001F04000010B54C00620D8023D218DB0004
:1041B000D21A5B057E2A10DD9E3A13DACC1709036A
:1041C000490819435242D140640001341532202A73
:1041D00005DAD0400843604310BD002010BD0846FA
:1041E000604310BDC80FC018013810BD18B4024B91
:1041F0005B6A019308BD0000F86F012018B4024B00
:104200005B6F019308BD0000F86F012018B4024BEA
:10421000DB6C019308BD0000F86F012018B4024B5D
:104220001B6D019308BD0000F86F012010B5014817
:10423000FEF770FB6498011070B513231C78012CF5
:1042400012D0012C12DC214B214A93642148FFF744
:1042500069FC214B186070BD20491D4A98008150AF
:1042600001331F2BF8D9ECE70023FAE71C48FFF7CE
:1042700061FC05001B48FFF75DFC023803789B00DA
:104280007F2B09DD12488022290000F09BFC022CC4
:1042900008D0022CDADCD6E7134B144A144832213A
:1042A000FEF7A0FA134B1A88B5231B029A4209D1D4
:1042B000114B1A88114B9A4204D1114B1A88114B99
:1042C0009A42E6D00020FEF725FBC046F1490010D7
:1042D000F86F01204C330000FC7001202D420010CB
:1042E00053440000534600007C980110B0E40110D4
:1042F000D098011054380000D8380000494600001A
:104300009C3800005946000030B50B0D5B055C0D74
:10431000002B14D00D4B9C4211D01419002C09DD38
:104320000B4B9C420CDDC90FC90700240948084308
:10433000050002E00024C90FCD072000290030BD90
:104340000024150524184D41F7E7C046FF0700007B
:10435000FE0700000000F07F30B50B0D5B055A0D25
:10436000002B1FD0134BD2181ED434239B1A002BC2
:104370001CDD1C00203C0CD401225242A24001242E
:1043800064429C400300A34391430B4310D101209E
:1043900009E02024E41A012252421500E5409A4027
:1043A0002A43ECE7012030BD0020FCE70120FAE7BA
:1043B0000020F8E701FCFFFF30B50B0D5B055B0D3E
:1043C0001B4A9B182CD43422D31A2BD41C00203C1B
:1043D00016D4353AA240012464429C400500A5430E
:1043E0002C000D0095432A0022431DD1342B1DD0F3
:1043F0001A00203A0DD40800D0400123184030BDE7
:104400002024E41A012252421500E5409A402A4332
:10441000E1E72022D21A0C009440D8402043ECE778
:104420000020ECE70020EAE70020E8E70120E6E7CB
:1044300001FCFFFF02000B00090D4905480D002992
:1044400007D00549884205D01803000B10434342AA
:10445000584170470020FCE7FF07000070B50400DA
:104460000D001600012A0ED0D20F92195210FFF73C
:10447000F5FF02000B00FFF708FEF60703D5220048
:104480002B00FFF702FE70BD10B5141E03DB2200E7
:10449000FFF7E4FF10BD02000B0000200249FFF708
:1044A000DAFD6442F3E7C0460000F03FF0B5D646BF
:1044B0004F464646C0B588B014001D000E0D760567
:1044C000760D674BF718674A921BFFF71DFFFFF742
:1044D000A5FE654A654BFFF7BEFD0022644B0090C8
:1044E0000191FFF72FFE002809D00022614B0098B0
:1044F0000199FFF7A6FD009001915F4BF718002F7F
:1045000011D000225D4B20002900FFF713FE002888
:1045100015D0002F10DB0020594908B0E0BCBA4686
:10452000B146A846F0BD22002B0000980199FFF784
:10453000ACFD00F065F9F0E700200021EDE7002276
:10454000504B20002900FFF7EDFD002807D0002F79
:1045500002DB00200021E0E700204949DDE72000E0
:10456000290000F001F90490059102000B002000E1
:104570002900FFF766FD03000C001A220293039442
:1045800000F0EEF800F0F0F81A225242FFF7BCFEFD
:1045900004000D0002000B0002980399FFF751FD83
:1045A0000690079104980599FFF7FCFD81460100EC
:1045B00079438A463800FFF7DDFD22002B00049086
:1045C0000591FFF762FD06000F0000F0CDF8040032
:1045D0000D00FFF7E7FD8046D04422002B0030009D
:1045E0003900FFF72EFD04000D00069A079B049882
:1045F0000599FFF74AFD02000B0020002900FFF794
:1046000025FD049005914846FFF7B4FD009A019BF3
:10461000FFF73BFD04000D0000F0A6F806000F00B8
:10462000FFF7C0FD804432003B0020002900FFF767
:1046300008FD049A059BFFF709FD04000D00029A8E
:10464000039B00980199FFF720FD22002B00FFF744
:10465000FDFC00F0D5F84246FFF756FE5DE7C04688
:1046600001FCFFFFFF030000EF39FAFE422EE63F98
:104670000000E03F0000F03F02FCFFFF0000B04000
:104680000000F07F0000B0C0F0B5C64600B582B0B3
:1046900004000D0016001F00019000291DDA100013
:1046A0001900FFF789FE00280ED0200080231B068A
:1046B000E91832003B00FFF7E7FF802424060919C0
:1046C00002B080BCB846F0BD019880231B06E918F3
:1046D00032003B00FFF7D8FFF2E710001900FFF7A8
:1046E00061FD804620002900FFF7A4FE00280CD1C0
:1046F0004346002B28D02033402B1FD932003B00EB
:1047000020002900FFF7D2FEDAE72A0D5205520DEC
:104710000F4B9C46624480231B01984505DA0D4BE4
:10472000984504DA0B4B984601E00B4B98464346FC
:104730005A4300200949FFF7E7FDC1E74246200040
:104740002900FFF7A1FEBBE700200449B8E7C046F7
:1047500001FCFFFF00F8FFFFFF0700000000F03F33
:1047600010B5FFF7D1FD10BD70B50B0D5B055B0DEE
:10477000214A944663445A1C24DB5A1C28D0342214
:10478000D21A002A1DDD3324E41A2500203D26D448
:104790000126AE4033000125A5402A0012184B41E6
:1047A0002500203D21D40226AE4031000225A5403F
:1047B0002800002544428D411600264030002B4041
:1047C000190070BD0022C90FCB0710001900F8E7CF
:1047D000CB0FDB070020094A1A431100F1E720251F
:1047E0002D1B0126EE403300D5E720252D1B022688
:1047F000EE403100DAE7C04601FCFFFF0000F03F69
:1048000070B504000D000A0D194B9A4229D0002200
:10481000184BFFF787FC002826D10022164B2000FA
:104820002900FFF787FC002802D0002013491DE073
:1048300020002900FFF798FFFFF7B4FC0600FFF700
:1048400099FC02000B0020002900FFF7FAFB0C4A3C
:104850000C4BFFF71AFCFFF7D9FC3200FFF754FDB1
:1048600004E00020002101E00020002170BDC046CE
:10487000FF0F00000000B0C00000B0400000F07F5B
:10488000EF39FAFE422EE63FF8B5CE46474680B5F0
:1048900006000F0014001D0000224E4BFFF734FCF1
:1048A000002821D12B0D98465B055A0D9146002B0F
:1048B0001AD00022484B30003900FFF725FC0028B1
:1048C00002D0464B99456DD03A0D5305590D002B3A
:1048D0001DD1002D0EDB20002900FFF76DFD002803
:1048E00063D03000390001E000203A49C0BCB9462D
:1048F000B046F8BD20002900FFF75EFD002857D024
:10490000FB0FDB070020364A1A431100EEE7334B5A
:104910009A4213D0334B9A4215D0304B984527D04A
:10492000304B98452AD020002900FFF715FD0028BC
:104930002AD1002F2FDA00202949D7E7002D3ADAB3
:1049400000200021D2E7002D08DB20002900FFF71E
:1049500033FD002832D000202349C7E7200029007A
:10496000FFF72AFD00282CD0002080210906BDE792
:104970001E4B994228DC00200021B7E71B4B9942CF
:1049800025DC00201649B1E722002B003000390059
:10499000FFF77AFEAAE722002B0030003900FFF76C
:1049A00085FDA3E700200B49A0E7002000219DE73B
:1049B00000200B499AE70020094997E700200849A1
:1049C00094E70020002191E7002005498EE70020B0
:1049D00000218BE70000F03F0000F0BFFF07000060
:1049E0000000F07FFF0F00000000F0FFFE0300005A
:1049F00007B56046002800D100BE01880A0A0230CF
:104A0000DF2AFAD1C9B2820804D3028840880004A0
:104A1000104300E00068024A5050039007BD0000B8
:104A2000F86F012051434343C9188C46110C83B2DF
:104A30004B4310B4040C614392B280B250436243C2
:104A40001C041B0C001910BC59411304120CC01893
:104A500051416144704700004840414048400E4B7E
:104A60005B6818470C4B1B6818470C4A936F9B08F0
:104A700002D2094BDB681847F0B5146E556E576FBC
:104A8000166FFFF7F6FF054A1466556657671667F7
:104A9000F0BD014B9B68184700710120000000D059
:104AA000491A002808D1084670470000C10FC907FD
:104AB00000D54042002817D0F44603B40B4B1B68C6
:104AC000984706BC81409E384042803107D20B0691
:104AD00007D04900490AC005104308436047013028
:104AE000F8E7490A8902F5E770470000FC700120E9
:104AF000014B5B6A1847000000710120034A104710
:104B00000029FBD0024B5B6E18470000A14A001041
:104B10000071012010B50148FDF7FCFEF8C9011035
:104B200070B513231E781848FFF704F80500012E0E
:104B300011D0012E09DDAB1E1B789B007F2B1DDDE4
:104B400012488022290000F03DF81148FEF7EAFFE4
:104B5000104B186070BD0D485422290000F032F847
:104B6000002300E001331F2BE3D8084A9C00A25821
:104B7000002AF7D10849054AA150F3E7074B084A34
:104B800008484221FDF72EFE534600000071012027
:104B90004C330000FC700120154B001018990110D7
:104BA000C4E401104C99011001480421014B18473D
:104BB00080A00020453B0010014B1B6818470000F7
:104BC00080A00020014B5B681847000080A00020F7
:104BD00010B50300080011001B68984710BD0000C5
:104BE000F8B507000D001600437D002B02D000240D
:104BF00000200CE003681100280098472DE03B7D61
:104C000010E03B68154802219847601C0134B4420B
:104C100014DA002CF3DD2B19013B1B780D3B5A42B3
:104C20005341DBB22A5D0A2AF0D1002BEED1A0421B
:104C3000E7DA3B68211A28189847E2E7B04203DA1E
:104C40003B68311A28189847002E06DDAD19013D42
:104C50002B780D3B5A4253413B75F8BDFCE40110E3
:104C600070B505000368002B16D00C4B1C6805E0DE
:104C7000290004C92000FFF7B3FF2469002C09D0E4
:104C80002368002BF9D0064B1B68002BF0D0A34201
:104C9000F3D1EDE700232B6070BDC04684BC00203B
:104CA0008CBC002070B505000C000B68802B05D073
:104CB00023685A1C2260E418257170BD0800FFF7B4
:104CC000CFFFF5E710B5002B02DB0260436010BD9B
:104CD000024B034A03483F21FDF784FDA4910110D4
:104CE00000E50110C091011010B582B00400FCF77E
:104CF000F5FF02000B006846FFF7E4FF009A019BF6
:104D000022606360200002B010BD000070B582B068
:104D1000060014001D00FA229200002306980021CC
:104D2000FFF780FE02000B0012196B41002B09DB1C
:104D30006846FFF7C7FF009A019B3260736030003E
:104D400002B070BD01225242004BF1E7FFFFFF7F2E
:104D500030B585B004000D0002A8FFF7C5FF029A28
:104D6000039B00952000FFF7D1FF200005B030BD68
:104D700000B583B0FA2189006846FFF7E9FF009A81
:104D8000019B024813F0ECFF03B000BD5CA50020BE
:104D900010B5024813F0A4FF10BDC0465CA500206A
:104DA000F0B5CE46474680B583B006000D0090466C
:104DB0001C00FFF7DDFF81466B1C05D0002C08D0DE
:104DC000194F1A4B1C6807E0300013F0AFFE0500C6
:104DD000F4E7174FF5E72469002C17D02368002B60
:104DE000F9D0144B1B68002B01D0A342F3D12A0049
:104DF00031002000B8474346002BECD06B46D91D4C
:104E00000A230B7001222000B847E4E74B46002B31
:104E100007D16B1E9D41E8B203B0C0BCB946B04695
:104E2000F0BDFFF7B5FFF4E7D14B001084BC0020C4
:104E3000E14B00108CBC0020094A01E010331A003D
:104E40001368002B08D08342F8D1002907D10369E9
:104E500013600023036102E0002900D01060704756
:104E600084BC002010B5064B1C6801E098472469FB
:104E7000002C03D06368002BF8D1F8E710BDC046C2
:104E800084BC002070B5050013F050FE0400002320
:104E9000012201002800FFF783FFFFF7E3FF200056
:104EA00070BD000070B5A2B004000E00FFF760FFF7
:104EB0000500002301930A483300220001A9FEF7F0
:104EC00013FE040001A8FFF7CBFEFFF7CBFF002D78
:104ED00002D1200022B070BDFFF75AFFF9E7C046AB
:104EE000A54C00100FB400B583B004A901C901910D
:104EF000FFF7D8FF03B008BC04B0184710B500F0A6
:104F000001F900F0C1FA012010BD000010B582B017
:104F10000C00144BC3185A425341134A5B009B5E6A
:104F20008B4204D06B46DA1D1470002115E06B46ED
:104F3000DA1D0D23137000210029F3D183699B062C
:104F4000FCD41378036001310132F5E783699B06D5
:104F5000FCD413780360013101320029F6D002B08D
:104F600010BDC0460080FCBF5072012082B00022FC
:104F70006B46D91D06E08369DB06FCD403680B7021
:104F800001320131002AF6D06B46D87902B0704761
:104F900070B506000D00002405E0315D034B186874
:104FA000FFF7B4FF0134AC42F7DB70BD547201204F
:104FB000F8B506000D00002705E07C1CF719FFF787
:104FC000D5FF38702700AF4204DA0E4A10688269B4
:104FD000D206F2D50C4A1268002A0CD0094A12688F
:104FE0005021916310003430526B183911408022E7
:104FF000520102431160002F01D03800F8BD033F79
:10500000FBE7C0465472012070AD002010B5064B7E
:105010001B68002B06D0054A126800219163044AE0
:105020001068984710BDC04670AD00205472012032
:1050300078AD002070B505000E001C4B1A681C4BA3
:10504000D31859424B4114331C0000281ED0194B71
:105050001B68002B04D0174B1D60174B1E6070BDE2
:1050600016492000FBF790FD01212000FBF762FDAF
:105070000E4B1B6850229A63190034315B6B183A4F
:105080001A4080235B010B431A60E4E7094B1B685D
:10509000002BE0D00023936300212000FBF74AFDA2
:1050A00006492000FBF7A2FED5E7C0465472012056
:1050B0000080FCBF70AD002078AD00200D500010C6
:1050C00070B50D001C000D4B1860002A0BDA002C87
:1050D0000EDA0A4B18682900FDF71EF9084801216D
:1050E000FFF7AAFE70BD02211000FBF709FBEEE7F7
:1050F00002212000FBF704FBEBE7C04654720120BD
:1051000090A0002010B5064B1B78064B1B78E121C0
:105110000123002249020448FFF7D2FF10BDC04618
:10512000E8680510E468051000400340704700007F
:10513000014B00221A707047D67303204B79FF2B66
:105140000CD18B79002B0BD1CB79012B0AD1082AFA
:105150000AD98A78054B1A70092000E000207047B0
:105160000020FCE70020FAE70020F8E7D6730320D0
:105170000120704770B504000D000348FEF7D2FC13
:1051800003002900200098475542000010B501296E
:1051900026D1117953791B020B43124909788B42AE
:1051A00001D000201DE05378012B03D0022B10D03A
:1051B000002016E09178D3781B021943DB0506D551
:1051C0004B0A012098407F231940FFF7D3FF0020AE
:1051D000F9E7642200210020FDF7C6FA012000E073
:1051E000012010BDD67303200123037000487047CF
:1051F0002CE5011010B50A784B781B0213438A780E
:1052000012041A43CB781B0613439622D200934212
:1052100000D010BD00210800FFF7ACFF024B186062
:10522000024B19607047C04674AD00207CAD002071
:1052300010B5002B02DB0260436010BD024B034A35
:1052400003483F21FDF7CEFAA491011060E501105B
:10525000C091011010B582B00400FCF73FFD0200C0
:105260000B006846FFF7E4FF009A019B2260636031
:10527000200002B010BD000070B582B0060014001E
:105280001D00FA229200002306980021FFF7CAFBB6
:1052900002000B0012196B41002B09DB6846FFF777
:1052A000C7FF009A019B32607360300002B070BD8E
:1052B00001225242004BF1E7FFFFFF7F30B585B07E
:1052C00004000D0002A8FFF7C5FF029A039B00959A
:1052D0002000FFF7D1FF200005B030BD10B582B02F
:1052E00004000498059912184B41002B09DB68460D
:1052F000FFF79EFF009A019B22606360200002B0CE
:1053000010BD01225242014BF1E7C046FFFFFF7F73
:1053100010B5024B1878FBF715FC10BDD7730320AE
:105320000268EFF3108172B61368002BFCD0BFF354
:105330005F8F41607047000070B50F4B1B68002BFA
:1053400016D00D4C2000FFF7EBFF0C4B00221A701B
:1053500021686368BFF35F8F0A6083F310880024BD
:105360000025074B1878FBF7EDFB2000290070BDE6
:10537000FA24A4000025F4E7605D0120D97303201E
:10538000D7730320F0B587B0040016001D000EABE4
:105390001F7804A8FFF75EFF049A059B009601950D
:1053A00004A8FFF79BFF049A059B02970D990191B2
:1053B0000C9900912000FCF777FA07B0F0BDF0B52A
:1053C000C64600B584B00500884616001F000AAB2B
:1053D0001C78FCF753FA0294019700962A00434682
:1053E000FFF7D0FF04B080BCB846F0BD10B582B066
:1053F0001948002113F09CFC002822D1174B1B6890
:10540000002B26D0154C2000FFF78AFF144A137892
:1054100001214B40DBB20121117021686268BFF3AA
:105420005F8F0020086082F31088002B11D00D4A96
:10543000012300930023FA2080000021FFF7BFFF23
:1054400007E001200021404201F094F8024813F0E7
:1054500047FC02B010BDC04604720120605D01200F
:10546000D97303203953001010B5054B1868002874
:1054700004D0044B1968002200F0A6FD10BDC04600
:1054800074AD00207CAD002010B582B0D0231B0687
:105490001C68FCF7F3F9FCF701FBA0422CD1234B6D
:1054A0001B7801F035FD2248FBF771FE0120FBF768
:1054B000FBFD204C20702049FF231840FBF764FBC4
:1054C00020780121FBF736FB0520FBF74BFB041E80
:1054D00018D01A4900220520FBF780FBFBF772FA6F
:1054E0000100174B1800FBF771FE16480121FFF76A
:1054F000A3FC200002B010BD134B144A1448B22183
:10550000FDF770F9134A012300930023FA2080006D
:105510000021FFF754FFC443E40F0948082200218B
:10552000FFF74AFB002CE4D0DFE7C046EC6805102B
:1055300004720120D7730320ED53001011530010A3
:10554000605D0120A8A000204491011050E50110E9
:10555000009A01103953001010B5002001F002FA32
:1055600010BD000030B583B004000D00FFF7F4FF5C
:10557000002830D0002001F011FA00282ED0FA21A6
:1055800089006846FFF79AFE009A019B164813F0BF
:10559000E7FB002825D0FFF7DFFF002804D000201C
:1055A00001F0FCF900280CD101200021404200F05C
:1055B000E1FF032464420C4813F092FB200003B087
:1055C00030BD2A002100002001F0F4F9041EF2D1C0
:1055D00003246442EFE703246442EFE703246442B8
:1055E000ECE703246442E9E704720120F0B5C64603
:1055F00000B582B080460D00FA2189006846FFF7A9
:105600005DFE009A019B2C4813F0AAFB002803D1F1
:1056100002B080BCB846F0BDFFF79EFF002849D11C
:10562000264B0020002118605960234813F058FBD6
:10563000EEE701200021404200F09CFF002001F035
:10564000CDF9FFF789FF0028EFD0002001F03EFAE6
:10565000002820D0AC42E8DA2E1B002001F036FAF8
:105660000200864200DC3200002AE2D043461919CB
:10567000002001F00FFA060001200021404200F056
:1056800079FF002001F0AAF9A419FCF727FB0B4BC6
:1056900018605960DEE7FCF721FB084B1E685F6865
:1056A000074A002392197B419942BED8D2D1904239
:1056B000D0D9BAE70024CDE704720120E0A600208B
:1056C00020A1070000487047E4E50110004870473A
:1056D00090E5011010B50400154B1B78002B0ED07F
:1056E000002C11D1134B144A5A80012301335B0063
:1056F0009BB21048C02292001343038010BD0C4897
:10570000112100F02DF8EBE7052C0ED80B4BA4006F
:10571000E4580023122BE9D8E15C0029E6D00133DC
:10572000044A58008152DBB2F4E70020E6E7C046A5
:105730006C7203209CB700200904000078E501107A
:1057400010B5024800F03AF810BDC046F06F0120D5
:1057500010B502490822FFF735FA10BDF06F01209D
:1057600010B5002901D000230AE0104B104A11485F
:105770001F31FDF737F800220DE03732C2540133F4
:105780004A1E9A420ED90F2B0CD85A080A4CA45C18
:10579000DA07F0D4042214410F222240092AECDC5B
:1057A0003032EBE7C0180023037010BD849A01105B
:1057B000F8E501108C9A0110F06F012030B589B026
:1057C000040004AD0D2200212800FFF7F5F90D2299
:1057D00000216846FFF7F0F94B232B700D22694634
:1057E000280013F075FA002304E05A1D69468A5C0C
:1057F000E2540133072BF8DD09B030BD02007F20F1
:105800001040D209400080184001014BC018704779
:1058100090BC002010B5038B3F333F2293430229F5
:1058200015D0124C2268C260D31823609C0610D198
:105830000F4C6240634080246401A3420FD8890664
:10584000114380231B060B434268136010BD5B00AD
:10585000E7E7084B084A09485421FCF7C3FF084B07
:10586000054A06485621FCF7BDFFC046585D012099
:1058700000001050289C011068E60110589C01108F
:10588000AC9C0110F8B505000E001400FFF7B6FF40
:105890007F232B40EF0985707A427A4142700022C3
:1058A000C2700683C476012F0DD0DA0012498C46EF
:1058B00062448260826800211160002B09D143603C
:1058C0000E4BC360F8BDDA000D498C46624482601D
:1058D000F0E7012F09D0013BDB000A4A94466344FC
:1058E00043602100FFF796FFECE7013BDB00064A2F
:1058F000944663444360F4E7840010500001105064
:10590000800010500C0010500800105070B584B08A
:1059100006000D0014000C22002101A8FFF74CF92D
:105920006B461E7103236A4653710295210001A83C
:1059300013F00EFA04B070BD70B50C001500FFF73F
:105940005DFF2A00210000F00DF970BD10B50028A0
:1059500004D101210520FBF7EDF810BD034B044AEB
:10596000D52104484900FCF73DFFC046F49C0110D6
:1059700058E60110589C011010B5002805D10022EE
:1059800000218020FFF7D8FF10BD034B034ADB2125
:1059900003484900FCF726FFF49C011048E601107B
:1059A000589C0110024B80225202DA647047C046B4
:1059B0000020115070B5041E26D100F0ADF8164D30
:1059C0000C23AB671549FF220520FBF707F91448A4
:1059D00040220021FFF7F0F8002240210020FFF7CD
:1059E00051FF002240218020FFF74CFF13F088F97F
:1059F00001232B6480239B05EB649023094AEA5022
:105A00002000FFF7CFFF70BD074B084A86210848EA
:105A1000FF31FCF7E7FEC0460000115021040020D2
:105A200090BC002010D00100F49C01107CE6011015
:105A3000589C01100B785B0602D14B78052B00D0E7
:105A400070478A78014B1A60FAE7C046000011508F
:105A500010B50A0000280DD18878097953791B0206
:105A60000B435B05590DD2789207920FFFF70AFF9F
:105A7000012010BD034B044AFC210448FF31FCF710
:105A8000B1FEC046F49C011038E60110589C01108C
:105A900010B513F035F910BD10B504000800110061
:105AA0001A00002C03D1FFF747FF012010BD034B64
:105AB000034A04480449FCF795FEC046F49C0110D3
:105AC00028E60110589C01100A02000010B50800D9
:105AD0004B0605D1CB09012B0AD00222054B9A6651
