:020000041000EA
:1000000000B5324B212058609868022188439860DF
:10001000D860186158612E4B002199600221596106
:100020000121F02299502B49196001219960352056
:1000300000F044F80222904214D00621196600F024
:1000400034F8196E01211966002018661A6600F04E
:100050002CF8196E196E196E052000F02FF8012189
:100060000842F9D1002199601B49196000215960AB
:100070001A491B48016001219960EB211966A021F2
:10008000196600F012F800219960164914480160C1
:100090000121996001BC002800D000471248134993
:1000A000086003C880F30888084703B5996A0420EC
:1000B0000142FBD001200142F8D103BD02B5186610
:1000C0001866FFF7F2FF186E186E02BD00000240BE
:1000D000000000180000070000035F00212200005C
:1000E000F4000018222000A00001001008ED00E03C
:1000F00000000000000000000000000074B24E7A12
:1001000000200420F7010010C3010010C5010010F9
:10011000C1010010C1010010C1010010C101001097
:10012000C1010010C1010010C1010010C701001081
:10013000C1010010C1010010C9010010CB01001065
:10014000CD010010CD010010CD010010CD01001037
:10015000CD010010CD010010CD010010CD01001027
:10016000CD010010CD010010CD010010CD01001017
:10017000CD010010CD010010CD010010CD01001007
:10018000CD010010CD010010CD010010CD010010F7
:10019000CD010010CD010010CD010010CD010010E7
:1001A000CD010010CD010010CD010010CD010010D7
:1001B000CD010010CD010010CD010010CD010010C7
:1001C00000BE00BE00BE00BE00BE00BEEFF3058054
:1001D000103800BEF2EB8871A4570610CC570610F9
:1001E0003402001090A31AE700201F49086006C8D7
:1001F00081F3088810471D48006800282FD10DA4FE
:100200000ECC002902D000F012F8F9E71849194A7B
:10021000002000E001C19142FCD1174988471749ED
:1002200088471749884700BEFDE701C901C29A42C5
:10023000FBD37047CC570610C0000020E414002008
:10024000F06B06100000042000000420F06B061084
:10025000001004200010042000000000704709482E
:100260000AF0F4F90047000008ED00E0000000D0BB
:1002700008150020E440032039930010FD0300100E
:10028000F99200105756000006005250ABB360536D
:100290009444021006005250861C0302AC44021023
:1002A000060052505422A29DB44402100500525040
:1002B000DE65F468F06B0610F8B5C0460448054BDF
:1002C00010B5834203D0044B002B00D0984710BDDB
:1002D000E4140020E4140020000000000648074950
:1002E000091A8B10C90FC91810B5491003D0044B57
:1002F000002B00D0984710BDE4140020E414002027
:100300000000000010B5074C2378002B09D1FFF73F
:10031000D5FF054B002B02D0044800E000BF0123AD
:10032000237010BD50160020000000009836021007
:10033000054B10B5002B03D00449054800E000BF71
:10034000FFF7CCFF10BDC04600000000541600208F
:100350009836021010B5D0231B06196802480AF01F
:100360008BFF00BE10BDC0469836021010B5D023DA
:100370001B06196802480AF07FFFFFF7EBFF10BD6C
:10038000BC36021000B587B0044A054901A800F048
:100390006BF8002021F0A0F907B000BDD4360210A0
:1003A000E036021000B583B009490A4800F0ACF904
:1003B0008022094909480023019301330093002357
:1003C000920121F0F1F8002021F086F903B000BD80
:1003D000FC36021008370210143702108503001093
:1003E00010B50A00D0231B06196803480AF044FF21
:1003F000FFF7B0FF10BDC0461C37021000B585B036
:100400000AF046FF0C490D2040421DF0DFFD01209F
:100410001FF0F0FB094B186080220949094803AB23
:100420000193022300930023920021F0BDF821F0F4
:100430000DF9002005B000BD6D030010C8FD0020BF
:1004400044370210A503001010B519F025F910BDAE
:1004500070B505000C00080022F06CFC0200A868D2
:10046000210019F02DFB70BDF0B5814CA5440600AC
:100470000C001500080022F05DFC013001210AF09B
:1004800045FD3060210022F04DFC280022F052FC96
:10049000013001210AF03AFD7060290022F042FC8F
:1004A000200000F01BF9734B6B441860724C6C44D5
:1004B000724B220023CB23C21B8813800023E381CD
:1004C0006C48684417F052FA0100200022F02AFC20
:1004D00000220121022019F0AFFAB060684D6D448E
:1004E0001022002128000AF031FD10232B700E3B52
:1004F0006B7050200DF002FD68806878614A6A4494
:10050000210019F0E3FAB368002B4EDB5C4C6C441D
:1005100060880DF0F3FC02005B4B574969441800FA
:100520000AF0AAFEB0681022210019F0EBF8071EAD
:1005300043D156493000FFF78BFF71683000FFF759
:1005400087FF53493000FFF783FF52493000FFF720
:100550007FFF51493000FFF77BFF31683000FFF724
:1005600077FF4E493000FFF773FFB06800234C4A15
:100570004C49694419F086F9002824DB27D0494BFF
:100580006B4400221A544848464B6B4419000AF049
:1005900073FE4249434B6B44180022F08FFD002844
:1005A000E3D042480AF038FE14E0414B1968414854
:1005B0000AF062FE404B9D44F0BD40482E4969441C
:1005C0000AF05AFEF6E73E480AF026FEF2E73D48FA
:1005D0000AF022FE04F020FA050035E038480AF05F
:1005E0001BFEE7E737480AF017FEB068FFF72CFF5D
:1005F000E0E735480AF010FEB0680023284A294990
:10060000694419F03FF900281ADD264B6B44039327
:100610000490002C14D00023009305AB04AA03A976
:10062000280004F037FA0400284821000AF024FECC
:10063000A31CDED0002CECD0254821000AF01CFEC3
:1006400024480AF0E9FD0137132FCEDC22480AF0D6
:10065000E3FDB0680023124A1249694419F012F907
:100660000028BBDBBED00F4B6B4403930490D2E752
:10067000C4E7FFFF34180000241800001C99021082
:10068000141800001818000098370210C037021024
:10069000C8370210D4370210E8370210F0370210C2
:1006A000FF07000014100000203802102438021048
:1006B0006C2F0020743702103C18000050370210D5
:1006C000F83702101038021058380210443802105F
:1006D00064380210703802103438021000B583B04C
:1006E00001A918F005FD002802D1019803B000BD52
:1006F000024B034A0348052108F002FE803802102D
:100700002C990210B438021010B515481AF0FCF8F4
:1007100000281BD11AF0D8F8FA2021F05DF9114811
:1007200011491DF052F911480AF076FD104911489F
:10073000114B124A1AF089F900280CD010480AF01F
:100740006BFD0121012008F075FDFEE70D480AF060
:1007500063FD002010BD0C480AF05EFD0120F9E7A2
:1007600047420000541D00204011A100F038021043
:10077000FC36021008370210983A000004004000CE
:1007800008390210D83802101C39021010B5C2689E
:10079000032A1BDD01684B1C03600B781B064360BA
:1007A0008C1C04604C78240423434360CC1C0460FC
:1007B0008C782402234343600C1D0460C9780B43EA
:1007C000436020238360043AC26010BD002343606D
:1007D000130009E001684B1C0360436809780B4370
:1007E00043601B02436023005C1E002BF2D1416872
:1007F00003339B1ADB0099404160D20082600023E2
:10080000C360E2E70260002343608360C160704719
:10081000F8B504001F2211404368521A1E00D6404A
:1008200076088B40436085686F1A876001D430007A
:10083000F8BD4D1BFFF7AAFF63683A00203219008C
:10084000D1400E43A268D219A260AB406360EEE7CC
:1008500003685B1ADB008068181A801A704700284A
:1008600006D00368002B06D05869431E9841704794
:1008700001204042FBE701204042F8E7F8B5CE46B0
:10088000474680B506000D00002800D1F5E0046859
:10089000002C00D1F4E00B78FF2B00D0F3E04B7874
:1008A0001F2219009143E02900D0EFE0DB089A07EE
:1008B00000D1D7E00122534001221A4094466346FA
:1008C00023706B785B08032213400421CB1A9846EF
:1008D00063606B7801214B4001210B40A360AB7832
:1008E0001B099946E360AB789B0813402361A87805
:1008F000400808406061A8780840A061E878800955
:100900002077EF783F0917402762EF78FF080F4004
:100910006762EF78BF083940A162E9780A40E26275
:10092000032B00D1B5E04246042A00D1B4E04A4688
:100930000F2A00D1B3E04A225343943261464A431E
:100940009B18584A9B186363012801D00023236237
:10095000032800D189E00222534BF250217820690C
:10096000524A4B005B181B189B009A58F823DB0077
:10097000F2502378002B00D079E002214C4BF1504B
:100980002778606801384B4A7B00DB191B185B0035
:10099000985E09F087FEF923DB00F05062680833A7
:1009A000F2502078444BF0542169E768434A0B0128
:1009B0005B1A410009180801411A5B18DB195B003A
:1009C0009B5E6269511E8A419B18FB22D200B35084
:1009D000E168002939D0277860680138384A030176
:1009E0001B1A7800C0190701381A1B185B185B0026
:1009F0009A5E53019B1A9B009B18DB00F722D200E2
:100A0000B35020782169E3689C462C4A0B015B1A9D
:100A1000410008180701381A1B1863445B009B5EED
:100A2000207F0338421E9041264A091849008A5EF9
:100A30009B1A043BA268002A00D002229B1A62691A
:100A4000511E8A419B18204AB350A368002B10D036
:100A50002B791B026A79134323630620C0BCB94675
:100A6000B046F8BD02239C4629E7012274E7012124
:100A700084E7002323630420F0E701204042EDE7F0
:100A800001204042EAE701204042E7E701204042DE
:100A9000E4E701204042E1E701204042DEE7012097
:100AA0004042DBE7C0BF0210BC0700009CC402103C
:100AB000C407000078C30210D40700005CC2021013
:100AC0008CC302106CC30210CC070000F0B5D646F0
:100AD0004F464646C0B584B080460A00002800D183
:100AE00052E103689946002B00D151E14768002F7D
:100AF00000D151E14B461B78002B32D14B461B7F76
:100B0000032B15D020239A4651466846FFF77AFEFC
:100B100009216846FFF77CFE38604B461B7F032B9C
:100B200009D003216846FFF773FE7860002511E0C5
:100B30000E339A46E8E70521F4E701216846FFF7FE
:100B400067FEAB001B1902339B00F8500134032CE5
:100B5000F3DD0135924B4246D358AB4219DD0024F8
:100B6000F5E74B461B7F032B15D011239A465146C0
:100B70006846FFF747FE08216846FFF749FE3860E0
:100B80004B461B7F032B09D002216846FFF740FE2E
:100B900078600025E6E006339A46E8E70121F4E7AD
:100BA000092154E0022B00D19AE0E3001B19DB007D
:100BB000EA00521912019B18FB180722DA65E300BC
:100BC0001B19DB00EA00521912019B18FB18D96DA2
:100BD0001422521A1A664B461B78002B00D1BBE038
:100BE0000020E6003619F600EB005B191B01F61831
:100BF000BE19706601216846FFF70AFEB066012142
:100C00006846FFF705FEF0660134654B4246D3584F
:100C1000A34200DCA5E00C216846FFF7F9FDE600E1
:100C20003619F600EB005B191B01F618BE19B0620D
:100C300009216846FFF7ECFDF06208216846FFF7DE
:100C4000E7FD30634B461B78002BA9D10421684691
:100C5000FFF7DEFDE3001B19DB00EA005219120169
:100C60009B18FE18706301216846FFF7D1FDB06341
:100C700000284CD002216846FFF7CAFDE60036196D
:100C8000F600EB005B191B01F618BE19F063012199
:100C90006846FFF7BDFD306405216846FFF7B8FDE3
:100CA000706405216846FFF7B3FDB0640023F36468
:100CB00003216846FFF7ACFD306503216846FFF766
:100CC000A7FD706503216846FFF7A2FDB065F36BD1
:100CD000002B00D066E70022F262B26272636EE718
:100CE000E3001B19DB00EA00521912019B18FB18E4
:100CF0001B6C002B00D058E7E3001B19DB00EA0057
:100D0000521912019B18FB180822DA6557E7E30015
:100D10001B19DB00EA00521912019B18FE18002370
:100D2000F363336405216846FFF772FD70640521A3
:100D30006846FFF76DFDB06405216846FFF768FD62
:100D4000F06404216846FFF763FDF06503216846FF
:100D5000FFF75EFD30663EE701216846FFF758FD6C
:100D60003FE701350F4B4246D358AB4201DD00242B
:100D70004BE73A680C4B4146CA50504604B0E0BCC1
:100D8000BA46B146A846F0BD01235B429A46F4E755
:100D900001235B429A46F0E701235B429A46ECE767
:100DA000BC070000C4070000DC07000010B50023EA
:100DB00003E0C2180024147001338B42F9DB10BD2C
:100DC000F8B5DE4657464E464546E0B5204C21492B
:100DD0002000FFF7EBFF204B38219B461800FFF760
:100DE000E5FFA4211D4B49009A461800FFF7DEFFDE
:100DF0008E211B4B490099461800FFF7D7FF194B6E
:100E0000194998461800FFF7D1FFD221174F8900E2
:100E10003800FFF7CBFFD921154E49013000FFF70D
:100E2000C5FF144D14492800FFF7C0FF5B4623603F
:100E3000534663604B46A3604346E36027616661A7
:100E4000A5612000F0BCBB46B246A946A046F8BD4D
:100E500048100120F4070000702F0020683D012099
:100E60004C3C0120B02F00201012000094270020DD
:100E700080E200203C18012004220000F0B5DE468C
:100E800057464E464546E0B589B0834604919246A2
:100E90000593129B052B00DDEDE30627FF1A0022C8
:100EA00005E09300C31819683941196001321F2AFF
:100EB000F7DD069783465B461968DB6F5A46D46BAD
:100EC000156CC818C91A0A04120C0914FE4E330016
:100ED00053439C4693029B18DB009B185B009B18B6
:100EE0006246120C9B181A144E431B041B0C9B19D0
:100EF0008E027618F60076187600711852181B14B8
:100F0000D21852006119641B23041B0C2414EF4DEA
:100F1000AC465D43EE4E73432D0C5B191D146746C2
:100F20006743BC461B041B0C634474432C191B14FD
:100F3000E418640143185D462B60401A0604360C21
:100F40000014E4490D00754333029B199B009B1963
:100F50001B019B1B2D0C5B191D140E0046431B042B
:100F60001B0C9B1906023618B60036183601301ACB
:100F70002D181B14ED186D005B46DD6313195846E0
:100F80000364121B1404240C12140800604323028F
:100F90001B199B001B191B011B1B000C1B18181491
:100FA00051431B041B0C5B18110289188900891816
:100FB00009018A1A80181B14C01840005B46D867C4
:100FC00058689B6F5A46926B59464D6CC418C01AAC
:100FD00003041B0C0014C0498C465943BF4E734395
:100FE000090C5B18191467464743BC461B041B0CCD
:100FF0006344464389191B14C91849005619521BEA
:1010000013041B0C1214B64884465843B54D6B4369
:10101000000C1B18181467465743BC461B041B0CD6
:101020006344554340191B14C018C000A3195A4605
:101030005360A41B2204130C2414D20AD21A5501A3
:10104000AD1A2D01A84A53432D0C5B191D146601DE
:10105000361B7701BE1B36011B041B0C9B19544326
:101060002C191B14E3185B005C46A3630B18636424
:10107000091A0C04230C0914E40AE41A6001001B89
:1010800000015343000C1B1818144D016D1A6C011C
:10109000641B24011B041B0C1B194A4382181B14DC
:1010A000D3185B005A4693679468536F516B956CE5
:1010B000E018E41A23041B0C24148C4A94465A4367
:1010C0008B4E7343120C9B181A1467466743BC4639
:1010D0001B041B0C6344664392191B14D218520064
:1010E0004E19491B0B041B0C0914824CA4465C438B
:1010F000814D6B43240C1B191C1467464F43BC469F
:101100001B041B0C63444D4364191B14E418E400D6
:10111000831959468B60801B0604360C00147749EE
:101120000D007543F3009B19DF01BC4663441B01AE
:101130009B192D0C5B191D140E0046431B041B0C40
:101140009B19C6003618F701BC46664436013618AE
:10115000AD191B14ED186D005B465D6313195846FD
:101160008364121B1404240C121408006043E3006F
:101170001B19DD015B191B011B19000C1B1818142E
:1011800051431B041B0C5B18D1008918CC010919B1
:101190000901891840181B14C01840005B465867A5
:1011A000D8681B6F5A46146BD56CC118C01A02045C
:1011B000120C0014524E330053439C4613019B18EB
:1011C000DB019B1ADB009B186246120C9B181A1459
:1011D00046431B041B0C9B1906013618F601361AF0
:1011E000F600301812181B14D21852006019641B34
:1011F00023041B0C2414434DAC465D43424E734301
:101200002D0C5B191D1467466743BC461B041B0C61
:10121000634474432C191B14E418A4000B185D4696
:10122000EB60091A0804030C0914400BC01A800073
:10123000C018C5012D1A354843432D0C5B191D14E8
:10124000CE00761AB6007618F701BE1B1B041B0CE5
:101250009B1941436D181B14ED186D005B461D630F
:1012600013195946CB64121B11040B0C1214490BB1
:10127000C91A8900C918CC01611A4343090C5B18CB
:101280001C14D100891A89008918CD01691A1B0420
:101290001B0C5B18504324181B14E41864005B46B5
:1012A0001C671869DB6E5A46D26A59460D6DC41820
:1012B000C01A03041B0C001415498C465943154EE3
:1012C0007343090C28E0C04651C20000FB22000015
:1012D0008551000072460000BD450000B34000008B
:1012E000CF2000000B6D0000E14200006D2D0000DA
:1012F000FA41000090570000D9410000449F0000CF
:1013000021340000968D0000FC5E0000CB520000EE
:10131000C41B0000CC4600005B1819146746474305
:10132000BC461B041B0C6344464389191B14C91893
:1013300049005619521B13041B0C1214CF48844643
:1013400005005D43CE4843432D0C5B191D146746D1
:101350005743BC461B041B0C634450432D181B14FD
:10136000ED18AD00A3195A461361A41B23041B0CEE
:101370002414C44806005E43C34A5343360C9B19E9
:101380001E1407006743BC461B041B0C63445443F4
:1013900036191B14F61876005B46DE624B195C4664
:1013A0002365491B0B041B0C091404005C435343C5
:1013B000240C1B191C1448431B041B0C1B184A4308
:1013C000A2181B14D3185B005A46D3665469936E57
:1013D000906A556DE118E41A23041B0C2414AB4ADF
:1013E00094465A43AA4E7343120C9B181A1467462C
:1013F0006743BC461B041B0C6344664392191B14D1
:10140000D218520043199C46401B0404240C0014BB
:10141000A04D2E00664363011B1B1F02B9464B44BF
:101420009B001B19360C9B191C1445431B041B0CF9
:101430005D1943011B1A1E029B199B001B18E4181F
:101440002D14641964006346CB1858464361634603
:10145000C91A0B041B0C09148F4D2E005E438F48D4
:101460004343360C9B191E142F004F43BC461B04EC
:101470001B0C6344414376181B14F618B6005B46F8
:101480009E62131959464B65121B13041B0C121450
:10149000290059434343090C5B18191455431B0495
:1014A0001B0C5B19504308181B14C3189B005A46A9
:1014B00093669069536E556A926D9446C118C01A2E
:1014C0000204130C0014520BD21A1201D21AD401C6
:1014D000A21A734E7343120C9B181A14C400241AD8
:1014E0002401241AE7013C1B1B041B0C1B19464357
:1014F00092191B14D21852006346E818ED1A2B04F7
:101500001B0C2D14674CA4465C43674E7343240C9C
:101510001B191C1467466F43BC461B041B0C634419
:10152000754365191B14ED186D000B185C46A3611B
:10153000091A0B041B0C09145C4C26005E435C4822
:101540004343360C9B191E1427004F43BC461B0413
:101550001B0C6344414376181B14F618B6005B4617
:101560005E62531959468B65521B13041B0C1214EF
:10157000210059434343090C5B18191454431B04BD
:101580001B0C1B19504308181B14C3189B005A4608
:101590005366D469136E106AD56DE118E41A2304FA
:1015A0001B0C2414434A94465A43434E7343120C73
:1015B0009B181A1467466743BC461B041B0C634404
:1015C000664392191B14D21852004619401B03049B
:1015D0001B0C0014394CA4465C43394D6B43240C5E
:1015E0001B191C1467464743BC461B041B0C634471
:1015F000454364191B14E41864008B195846C361F1
:10160000891B0E04360C09142E48030073432E4D1B
:101610006E431B0C9B191E1407004F43BC461B0452
:101620001B0C6344694389191B145B181B01594641
:101630000B621319CB65121B1104090C1214030061
:101640004B434D431B0C5B19191450431B041B0CDB
:101650001B181D48424352181B149B181B015A4665
:1016600013661A4B98460423019343460093594648
:10167000534607939DE1002306931CE4971A00004C
:10168000D84A00002E400000E2640000F09C0000F8
:101690009D4A0000B31D0000A9240000E2430000A1
:1016A000AE4F000026CF00006F6B0000C19200001B
:1016B0003C6E0000A71E000060560000EBF6000024
:1016C0004C5F0000044E00009E510000A0990210E3
:1016D0000868CA69CE680C698518009B1B68801A67
:1016E0001A04120C90461B149C4603041B0C001495
:1016F0005A4367467B43120C9B181A1447464743CC
:10170000B8461B041B0C43446746784312181B144D
:10171000D21852003019009B5B68341B1E04360C33
:10172000B0461B149C4623041B0C24145E436746DE
:101730007B43360C9B191E1447466743B8461B046F
:101740001B0C434467467C4336191B14F618F600FD
:101750002B189C46009B9C68281A25042D0C2414E9
:1017600003041B0C00141F006F4363433F0CB84677
:1017700043441F14BA462F004743B8461B041B0CB2
:101780004344604350441B14C01843009A469319C5
:101790000293921B13041B0C12142800584363433A
:1017A000000C1B18181455431B041B0C5D195443E3
:1017B00000192D144019470003974D688A698C68F9
:1017C00048698146AB180098C668AD1A3004000C11
:1017D00036142A04120C2D141700474372433F0C91
:1017E000B84642441714B84668431204120C121843
:1017F000754345441214AD186D004A46A61800986A
:101800000069A21A0404240C001480461004000C81
:10181000121407006743B946474678434F463F0CCA
:10182000B94648440714B94654430004000C001953
:10183000444662434A440014121852009C1900980E
:1018400040699B1B0604360CB14600141E04360C7E
:101850001B144F46774346433F0CB8464644371463
:10186000B8464F465F43BB463604360C5E4443439E
:10187000434436149B199B00AE18B046009E1836A0
:101880000096AA1A15042D0C12144E466E434543B9
:10189000360CAD192E144F465743B9462D042D0C66
:1018A0004D44504330182D1440198000A146E144A6
:1018B0006246141B2204120C2414534E3500554367
:1018C000AC46524D6A4367463F0CBC46624417140F
:1018D000BC4637006743BB461204120C5A446C43A3
:1018E00064441214A41864009C46D4445246D31A8B
:1018F0001A04120C1B14370057436A433F0CBA46B4
:1019000052441714BA4637005F43BB461204120C08
:101910005A446B43534412149B185B004A460A60B6
:101920004C606246D2188A60CB60029B1C00444423
:1019300042469A1A13041B0C1214944632005A435E
:101940006B43120C9B181A1467467743B8461B0466
:101950001B0C434467466F43BC4662441B14D218B9
:101960005200039F3B18381A80460004000C47467B
:101970003F14B8463700474368433F0CBC466044B9
:101980000714BC4647467E430004000C86197D437D
:10199000280060443614801940001B18E4180C61BC
:1019A00014184C61D2188A61C8612031019B013B37
:1019B0000193019B002B00DD8AE68B46079B9A462C
:1019C00005995B1A07221A40130001928022D20067
:1019D0009C4662449200002900D19CE100230093C0
:1019E000009B9C466244049B9C4662445B46803B51
:1019F0001B681362136053469B000599002900D1B0
:101A00008DE18821490103E09A790000825A0000A3
:101A10005B18049FBC4663447C21494259448C4670
:101A20000968196219605E461C3E30680C21494203
:101A300059448846096840185D463C3D029529682E
:101A40000918902464001951203C195159465C39F9
:101A50000C0009684C256D425D44A9462D68AA46D4
:101A600051448825AD005951203D59512C214942FE
:101A700059448A4609680918C8208000195020383E
:101A8000195041460868142149425944884609685A
:101A9000401859466C3909688425ED005951203D9C
:101AA00059515146096809182135FF355951203DD2
:101AB00059514946096854256D425D44A9462D682F
:101AC000AA465144C425ED005951203D59513421B5
:101AD000494259448A4609680918E420C00019504F
:101AE0002038195041460868042149425944884623
:101AF0000968401859467439096882252D015951E1
:101B0000203D59515146096809182135FF35595171
:101B1000203D59514946096844256D425D44A94616
:101B20002D68AA465144A2252D015951203D5951F5
:101B30002421494259448A4609680918B220000103
:101B400019502038195041460968584664380068D1
:101B5000C2252D015851203D58515046006840186B
:101B60002135FF355851203D5851484600682135F0
:101B7000FF355851203DA9465851F22000018046BA
:101B8000195020381950019910318900009DAA463A
:101B90005144BA46514467463F680F620F600827B8
:101BA0007F425F44BC463F68BA4636685644029D51
:101BB0002D68AD1990277F00CD51203FCD51493F71
:101BC000FF3F5F44BA463D6824682D198824A4006D
:101BD0000D51203C0D515C46283C2568AD19C826A6
:101BE000B6008D51203E8D51203F3D682136FF3695
:101BF0008D51203E8D5150373D003E6867463F680D
:101C0000BC4666442468A419A427FF00CC51203F99
:101C1000CC51582464425C44A446246857463F682B
:101C2000BA465444C427FF00CC51203FCC5138243D
:101C300064425C44A2462468A419E426F6008C5150
:101C4000203E8C515C46783C24682136FF368C510E
:101C5000203E8C515C46103C26682D68751957460D
:101C60003E68761992273F01CE51203FCE51502732
:101C70007F425F44BA463E6867463F68BC4666445A
:101C8000A2273F01CE51203FCE5130277F425F44F3
:101C9000BC463E687619B2252D014E51203D4E516D
:101CA000403F3D68C22636018D51203E8D51503750
:101CB0003D6824682C1967463D682D192136FF368A
:101CC0008D51203E8D515D46603D2D6857463E68E2
:101CD000AD19E22636018D514E468D515D46403D8F
:101CE0002D682C1945464C510C50069F002F42D0B0
:101CF0001468E5171F20C01B26000641AE4204D021
:101D000080242406FC40013C6C40069FBC401462C9
:101D1000146010240BE088235B01009360E600212F
:101D200076E6BA401A621A600133FF3301341F2C81
:101D30000BDC1A68D51716000641AE42F1D080229E
:101D40001206FA40013A6A40EBE70F2205E0BB4079
:101D50000B620B600131FF31013A002A0BDB0B688B
:101D6000DC171D000541A542F1D080231B06FB4076
:101D7000013B6340EBE709B0F0BCBB46B246A94665
:101D8000A046F0BDF0B5DE4657464E464546E0B5A6
:101D90008BB00E00002800D12EE10768002F00D183
:101DA0002DE143689946002B00D12BE183689A46C8
:101DB000002B00D129E1C468002C00D128E103697F
:101DC0009846002B00D126E1C6239B00434407938D
:101DD0000023099308930025BB4607002DE0EB0084
:101DE00058190002201869004919C9009022D20030
:101DF000AA189200A2180692079A9446614402918A
:101E00006901491B49007201921B9200944661448A
:101E1000514401915B19DB00F100891909015B183C
:101E200028334B4400935B46069A414600F07EFA05
:101E30007A4BEB189B00E0500135794BFB58AB42D5
:101E4000CDDC5F463B6A002B09D0764BE358002B74
:101E500000DC79E0744BE358002B00DC76E03B6A51
:101E60005A1015D0DB0700D4A2E0CC239B004246D9
:101E7000D358002B00D08EE07A6BCC239B004344D8
:101E80005B6901335B00995E08AA200004F003FD42
:101E9000386AC3071CD590235B01E1583B78002BBF
:101EA00000D08FE073019B1B9B003E33534408AA74
:101EB0000392F200921912014A4488321268029287
:101EC00040100190079A00923A00200004F01CFD97
:101ED000386A002818D0089808F0ACFB0138514B3C
:101EE000E050099808F0A6FB01384F4BE0500C3B3E
:101EF000E2584E4BE358934200DA1300902252010D
:101F0000A3504A4AA35000200BB0F0BCBB46B246D7
:101F1000A946A046F0BD013390225201A2589A4230
:101F200016DD9A001159C0221206914202DC9A0075
:101F30003F4911519A0011598022D2059142EADBA2
:101F40009A003C491151E6E70023E5E70023E3E767
:101F5000002300E00133354AA2589A4200DC7EE7B4
:101F6000902080001A1892001159C0221206914246
:101F700003DC1A1892002E491151902080001A1883
:101F8000920011598022D2059142E3DB1A18920087
:101F900028491151DEE77A6BCC239B0043441B692F
:101FA00015335B00D31806229B5E5900C9186BE7F6
:101FB00090235B01E3581D4AA158994200DB63E777
:101FC000190061E773019B1B9B003E33534408AA31
:101FD0000492F200921912014A4488321268039264
:101FE000401002905246F8320192079A00923A004D
:101FF000200004F0DFFE6BE70120404284E701206F
:10200000404281E7012040427EE7012040427BE7D9
:102010000120404278E70120404275E78204000039
:10202000BC070000081200000C120000041200009F
:10203000010000C0FFFFFF3FF0B5DE4657464E46A9
:102040004546E0B58BB004000291032119408D0193
:10205000AA48AC468444AA488900095805919B10B7
:10206000049303931F2B01DD1F23039303990B009C
:102070001C2900DD1C23033310D400210691614686
:10208000496819410791614689681941089161467B
:10209000C968194109910020019019E00023ECE77B
:1020A00098490B4223D1AD0061464D59049900294E
:1020B00019DB03990D41019929430191002B00DAA5
:1020C00011E1029B20C3013A002A00D10DE10293E5
:1020D000236804345D006D088B490B42E0D1AD00EC
:1020E00006A96D58E7E7039949428D40E3E7874920
:1020F0000B4222D1103D8649AD006F583904090CBE
:1021000088463F1405990E04360C0914454675435C
:102110007E432D0C761935144046484380463604DC
:10212000360C46444F43ED193614AD190399033963
:10213000002900DACEE00D41BDE7690480263605AE
:10214000B14200DBC0E06905042080468025AD0572
:10215000A94203DA890002208146C8448025ED05A2
:10216000A94203DA490001208146C844694DA942C9
:1021700000DDACE068488146484607683D04280C0D
:1021800082463F140D042D0C091406006E432800EE
:1021900078438346360C5E443014834650464843A9
:1021A00082463604360C56444F435F443614BE19FB
:1021B00048464768BF193E04300C82463F1406006B
:1021C0006E43280078438346360C5E4430148346C1
:1021D0005046484382463604360C56444F435F44CB
:1021E0003614BE1948468768BF193E04300C824633
:1021F0003F1406006E43280078438346360C5E4445
:10220000301483465046484382463604360C5644C2
:102210004F435F443614BE194846C768BE19370499
:102220003F0C3614280078437543000C8246554411
:10223000281482464F432D042D0CED19714351444F
:102240002D144919484605696D18344940468700E0
:102250007E582904090C8946291488463104090C42
:1022600036144D464D43404641432D0C49190D143B
:102270004846704381460904090C49444046464398
:10228000AD1909146D18E900ED04280C80460914F5
:10229000894605990E04360C091405007543484615
:1022A00046432D0C76193514404648438046360483
:1022B000360C4644484641436D183614AD1918494A
:1022C00079580398411A33E7002080463EE71548C5
:1022D000814651E74942144E0E41AE4201DB8D402A
:1022E000E9E6114DE7E66D42EBE601980BB0F0BC74
:1022F000BB46B246A946A046F0BDC046289B021088
:10230000289C0210F0FFFF7FFCFFFF7FC0FFFF7FD4
:10231000689A02109979825A549A0210009A02100F
:10232000209A0210409A0210FFFFFF7FF0B5DE46B0
:1023300057464E464546E0B58BB0039093469A46C5
:10234000149B9946169D5B69022B1CD00D230493A8
:102350000933009300230793089309934B461B6CA2
:1023600001335B0001934B46986853461B6A5B1030
:1023700000D00238831C0293002700240026B846B0
:10238000059116951DE04B469B690093002B08D0E4
:1023900053461B78002B07D1033304930533009376
:1023A000D8E7009B0493D5E70323049303330093FA
:1023B000D0E74346034398465B461B68B34227DD9C
:1023C0003C00009B9C4223DA53465B6B671C7A00FF
:1023D000D55E6200D35EED1AD223029A9B1A159A3B
:1023E000125D4946C96B002901D06149095D521847
:1023F00001994A439B18B000039A944660442A000E
:102400000100FFF719FE76190028D2D00794D0E713
:1024100047460599169D00232B6007986861EB607D
:10242000AB606B602B61049B0B2B0CDC049B079354
:10243000089309930097039A90460F00524604921E
:102440009A46169551E0380008F0F4F8013885E016
:10245000009B034300930135022D23DCD223029A13
:102460009B1A2A000A32920049465258D2009B1801
:102470006200121915998C4662445219D27D019955
:102480004A439B1831006943781880008900514401
:1024900040443200FFF7D0FD0028D9D0AB0007AA96
:1024A0009C50D5E734003E005746B50045446300D4
:1024B0001B19F618002110E04B005B189B00EB186D
:1024C0008A00D2591A600A199200D2595A606200E1
:1024D00052189200D2599A600131A142ECDB5B465E
:1024E0001B68B3421DDD039B9A4653460C2B18DC38
:1024F000049B5B6B524601320392514615314900F1
:10250000591806228C5E5146143149005B18062288
:102510009B5EE41A00253B003700260054469A468D
:102520009AE7009F169D5B461E604B469B69002BF9
:102530001BD002232B60079B6B600899A960099A46
:10254000EA602B618B4200DA0B002B619A4200DAC1
:102550001A002A61380008F06DF801380BB0F0BCA1
:10256000BB46B246A946A046F0BD0123E2E7C046FD
:10257000389C0210F0B5DE4657464E464546E0B55B
:1025800085B01D000E9E002900DCD0E1002B00DA92
:10259000D5E1D14B9400E3585B00D04C1B1900935C
:1025A000CF4BD200D458A3469B181B7999460F9B5A
:1025B0005A42072423001340144205D032781934BC
:1025C000E41AA240013600E00022EC1AA4464C4670
:1025D000002C1BD0012C1BD0023CE4B2012C00D9F2
:1025E00096E0009CA2460024A0464C460294039527
:1025F0007CE19300C31800241C60531C9B00C3188B
:102600001C6002328A42F4DB002091E10022F9E7EB
:10261000009C24880F2727400024A9462500B046A7
:10262000019700296DDD64460F2C14DD44462478A3
:102630001826F61AB4401443424652781026F61A69
:10264000B2402243103310246442A246D4441234D0
:10265000A246D0442EE0E418002C00DC72E165466E
:10266000002D08DD45462D781826F61AB5402A4378
:102670000125AA46D0446546082D08DD45462D783B
:102680001026F31A9D402A4301239C46E044651E10
:1026900080231B062B411A4023000B330B250024FB
:1026A000A44607E0AB4200DA4FE1544604604760BD
:1026B000023908300029B4DD0A2BB2DD2024019E46
:1026C000A41B1700E7403C0001346400009F3C5B02
:1026D000270BDB1BBA4027090F263740BA4605D027
:1026E000D60FF6073E43B2465200013B240A0F279D
:1026F0003C40271ED6D0D70FFF0727435200013B8F
:10270000D0E7A8464D4642469B1A6344E81A0FE1BB
:10271000012040420CE1E418002C00DC18E1654681
:10272000002D05DD35781827FF1ABD402A430136F4
:102730006546082D05DD35781027FB1A9D402A4394
:102740000136651E80231B062B411A4023000B33E4
:102750000B24A0460024A4465746029CA14601969D
:1027600087E05B1BAA4064003F1982E04E46032EBF
:1027700000D09AE05E46013602962600771EBE41E2
:10278000B246029FBA446646F718574500DAE2E0BF
:1027900002950D001100624684465046019EAA46ED
:1027A00007E035781827FF1ABD4029430833083A57
:1027B00001368342F5DB029D604694460A0051468D
:1027C00001966646002E09DB20275E46BF1B1600D9
:1027D000FE40AD195E469B1BB24066E063445E1E40
:1027E00080273F0637413A400026B446ECE74E4684
:1027F000032E63D1023E5E44B2466646F718574543
:1028000000DAABE002950D001100624684465046A6
:10281000019EAA4607E035781827FF1ABD402943D4
:102820000833083A01368342F5DB029D6046944640
:102830000A00514601966646002E09DB20275E46B7
:10284000BF1B1600FE40A4195E469B1BB24035E03C
:1028500063445E1E80273F0637413A400026B44657
:10286000ECE7434500DA7CE0056044600239009FF4
:102870000830002936DD0A2B28DD3C880F2525404D
:102880002024641B1600E6403400013464003C5BE5
:10289000260B00D165E79B1BB24025090F273D4061
:1028A000240A3C400F2D00D160E7002D04D0D70F43
:1028B000FF073D435200013B0F2C98D0002CD0D095
:1028C000D70FFF073C435200013BCAE7BA464C46CC
:1028D0000294019E0AE0C046B09D0210309E021094
:1028E000B09C0210BA464C460294019E002918DDA5
:1028F00064460F2C00DC0EE734781825ED1AAC4046
:10290000144372781025ED1AAA4022431033102484
:102910006442A146CC4402365746029CA146019629
:10292000A7E7039D42469B1A6344E81A00E0002093
:1029300005B0F0BCBB46B246A946A046F0BD01209A
:102940004042F5E701204042F2E701204042EFE734
:1029500001204042ECE701204042E9E701204042EB
:10296000E6E701204042E3E7F0B5DE4657464E4633
:102970004546E0B585B005000F001C1E0E9B00DC2F
:10298000B0E05C499200515888465B4952589146E4
:102990000F9A5242072631001140164226D01A786B
:1029A0001936761AB2400133641A00208446A346D1
:1029B0000397039CE71E874200DC94E05C460F2CE3
:1029C00016DD1E781824641AA64016435A7810247F
:1029D000641AA2403243103110246442A246D34408
:1029E000023301975C4602940E9338E00022DBE745
:1029F00064180194002C76DD5C46002C09DD1C78FF
:102A0000A4461824641AA24664465646B44022439B
:102A100001335C46082C07DD1C78A4461024611A9B
:102A200064468C4022430133019E711E8C468021F6
:102A30000906644621410A4031000A310A24A446AD
:102A40000024019702940E9309E061454BDB2E6050
:102A500053466B605B46AB60EC6004301035019B05
:102A600083423BDD092935DD20234C461B1B140026
:102A7000DC4023004344214CE45C2309C91A9A40FA
:102A8000E608012333401E1E04D0D60FF6071E436E
:102A900052000139A30801273B409A4605D0D70FC1
:102AA000FF071F43BA4652000139630801273B4024
:102AB0009B4605D0D70FFF071F43BB465200013985
:102AC000012323401C1EC0D0D40FE4071C43520036
:102AD0000139BAE7029B9B460E9B6AE7029B9B4625
:102AE0000E9B66E7002005B0F0BCBB46B246A94687
:102AF000A046F0BD589C0210509C0210609C021031
:102B0000F0B5DE4657464E464546E0B58BB00591DA
:102B100092461F00149B9846159E002800D132E172
:102B20000268002A00D131E143689B46002B00D1A6
:102B30002FE18368002B00D12EE1C3689946002B5A
:102B400000D12CE1002F00DA2CE1F3009B19DB000F
:102B50004146C900414409015B185B449B6B002B53
:102B60000BD0F3009B19DB004146C9004144090129
:102B70005B185B44DB6B022B79D0516BF000801942
:102B8000C0004346DB0043441B01C0185844C36DDA
:102B900001335A00525E006E1B1801335B00595E10
:102BA000F3009B19DB004046C000404400011B18A5
:102BB0005B44DD6A6D0090239B009D4200DD1D009B
:102BC00009952B008D4200DD0B0008932B009542E8
:102BD00000DD13000793002306939023DB00F31816
:102BE0009B004A469D50059B0293002420005446BA
:102BF00043461493A8461D0002287ADCF3009A1974
:102C000012024A44039206AA810089588C46890020
:102C10008A46411C0491890089589B195B00EA008F
:102C2000521992009B181B1810339B005B445A6882
:102C30006346C91A0398504423680193029B00938A
:102C40003B00FFF797FC002800DAAEE0874200DA8D
:102C5000AEE023681B18DA1002998C469444624651
:102C600002920722134023603F1A0498C4E7F3003E
:102C70009B19DB004146C900414409015B185B44D4
:102C80001B6C002B14D1546BF3009B19DB005B18F9
:102C90005B44D86D0130032107F004FD143040007F
:102CA00024180622A35E5A00D2189021890077E7E3
:102CB0001378002B10D1526BF3009B19DB004146B7
:102CC000C900414409015B185B44DB6D01335B00C3
:102CD0009A5E9021890063E7526B3621535E34205F
:102CE000115E5B1A0C21525E5B00D21890218900A4
:102CF00056E7A24614954546149B9846F30098194A
:102D000000024844AC009B19DB004246D20042441A
:102D100012019B185B44DA6E90218900491B00194F
:102D200053461B680193029B00933B00FFF71CFE78
:102D30009023DB00F3189B004A469A5810184A4625
:102D40009850494607E0F3009B199B011B189B0014
:102D500000225A50013090239B009842F3DB5346E7
:102D60001B68DB19D810029A94466044072213406E
:102D700052461360059BC01A0BB0F0BCBB46B2466E
:102D8000A946A046F0BD01204042F5E7012040429F
:102D9000F2E701204042EFE701204042ECE701204A
:102DA0004042E9E701204042E6E701204042E3E7F4
:102DB00001204042E0E70000F0B5DE4657464E46AF
:102DC0004546E0B587B0029100908BE3009A483207
:102DD000131F05931D68FE48066800921468019051
:102DE000436898463204130C9C4636142A04120C8D
:102DF0002D141F005743310051433F0CC9190F14C4
:102E00006B4399460904090C49442B0073439946C6
:102E10004F4409147B18049341460F043F0C0914D6
:102E200088462104090C2414A1460C007C43434627
:102E30004B439B46240C5C44231403934B467B4337
:102E40009B462404240C5C444346484643439B462B
:102E5000039B9A46D34424145C44049B1C1B6400CB
:102E6000059B1C6064464C437143240C09190C14E7
:102E7000634643439C460904090C61444643A61932
:102E8000091476181100794343465A43090C521825
:102E900011146F431204120CD2195D434D19121410
:102EA000AA189219520000990A6008235B429A46B8
:102EB0008C46E244534605931D68019886684C6829
:102EC000C36898463204130C9C4636142A04120C2C
:102ED0002D141F005743310051433F0CC9190F14E3
:102EE0006B4399460904090C49442B0073439946E6
:102EF0004F4409147818049043461F043F0C1B14D8
:102F000098462104090C231499460C007C4343463F
:102F10004B439B46240C5C44231403934B467B4356
:102F20009B462404240C5C444346484643439B464A
:102F3000039B9A46D34424145C440498041B640005
:102F4000059B1C6064464C437143240C09190C1406
:102F50006346484643439C460904090C6144464382
:102F6000A619091476181100794343465A43090CEF
:102F7000521811146F431204120CD2195D434D19EB
:102F80001214AA189219520000994A600C235B424D
:102F90009A468C46E244534605931D68019806699B
:102FA0008C68436998463204130C9C4636142A04F4
:102FB000120C2D141F005743310051433F0CC91907
:102FC0000F146B4399460904090C49442B007343C1
:102FD00099464F4409147818049043461F043F0C47
:102FE0001B1498462104090C231499460C007C43B9
:102FF00043464B439B46240C5C44231403934B46AB
:103000007B439B462404240C5C444346484643438C
:103010009B46039B9A46D34424145C440498041BA7
:103020006400059B1C6064464C437143240C0919E1
:103030000C146346484643439C460904090C61440A
:103040004643A619091476181100794343465A439A
:10305000090C521811146F431204120CD2195D435B
:103060004D191214AA189219520000998A6010235F
:103070005B429A468C46E244534605931D6801988C
:103080008669CC68C36998463204130C9C46361492
:103090002A04120C2D141F005743310051433F0CDA
:1030A000C9190F146B4399460904090C49442B00B4
:1030B000734399464F4409147818049043461F04FB
:1030C0003F0C1B1498462104090C231499460C004C
:1030D0007C4343464B439B46240C5C44231403939C
:1030E0004B467B439B462404240C5C4443464846A1
:1030F00043439B46039B9A46D34424145C44049860
:10310000041B6400059B1C6064464C437143240C03
:1031100009190C146346484643439C460904090CAC
:1031200061444643A61909147618110079434346B1
:103130005A43090C521811146F431204120CD2197D
:103140005D434D191214AA18921952000099CA60D1
:1031500014235B429A468C46E244534605931D680D
:103160000198066A0C69436A98463204130C9C461F
:1031700036142A04120C2D141F00574331005143FA
:103180003F0CC9190F146B4399460904090C4944B3
:103190002B00734399464F44091478180490434612
:1031A0001F043F0C1B1498462104090C2314994654
:1031B0000C007C4343464B439B46240C5C44231445
:1031C00003934B467B439B462404240C5C4401E060
:1031D00048C902104346484643439B46039B9A46D0
:1031E000D34424145C440498041B6400059B1C60B5
:1031F00064464C437143240C09190C146346484639
:1032000043439C460904090C61444643A61909142A
:1032100076181100794343465A43090C5218111489
:103220006F431204120CD2195D434D191214AA18DF
:103230009219520000990A6118235B429A468C4603
:10324000E244534605931D680198866A4C69C36A37
:1032500098463204130C9C4636142A04120C2D1482
:103260001F005743310051433F0CC9190F146B43E2
:1032700099460904090C49442B00734399464F446D
:1032800009147818049043461F043F0C1B149846F9
:103290002104090C231499460C007C4343464B43FC
:1032A0009B46240C5C44231403934B467B439B4670
:1032B0002404240C5C444346484643439B46039BFA
:1032C0009A46D34424145C440498041B6400059B70
:1032D0001C6064464C437143240C09190C1463466A
:1032E000484643439C460904090C61444643A619D9
:1032F000091476181100794343465A43090C5218B1
:1033000011146F431204120CD2195D434D1912149B
:10331000AA189219520000994A611C235B429A46EE
:103320008C46E244534605931D680198066B8C69F0
:10333000436B98463204130C9C4636142A04120C34
:103340002D141F005743310051433F0CC9190F146E
:103350006B4399460904090C49442B007343994671
:103360004F4409147818049043461F043F0C1B1463
:1033700098462104090C231499460C007C434346CB
:103380004B439B46240C5C44231403934B467B43E2
:103390009B462404240C5C444346484643439B46D6
:1033A000039B9A46D34424145C440498041B640091
:1033B000059B1C6064464C437143240C09190C1492
:1033C0006346484643439C460904090C614446430E
:1033D000A619091476181100794343465A43090C7B
:1033E000521811146F431204120CD2195D434D1977
:1033F0001214AA189219520000998A6120235B4284
:1034000099460A008C46E1444B4619680198846B42
:10341000D269C76B2604360C20140D042D0C091438
:103420002B00734304006C431B0C9C466444231420
:103430009C460B00734398462404240C44440B0020
:1034400043439846C44424142300634403933C0438
:10345000240C3F14BC4617043F0C121490463A004B
:10346000624363467B439A46120C524413149A46B5
:10347000434663439B461204120C13005B440193C2
:103480006346424653439B46D344019B1A145A4415
:10349000039B9A1A52004B461A6032007A43474304
:1034A000120CD7193A1443465E433F043F0CBF1930
:1034B000584310183F14C0192A00624363465D4305
:1034C000120C521916144C431204120C12195943BF
:1034D00089191214521812185200009BDA61029BCB
:1034E000013B0293029B002B00DD6FE407B0F0BCB0
:1034F000BB46B246A946A046F0BDC046F0B5DE4682
:1035000057464E464546E0B583B0022A0CD0D5005A
:10351000AD182D01E64BED182C0048348C35019583
:103520000F004437092613E2D3009B181B01E04A21
:103530009B189F6985683E04360C3F142A04120CC0
:103540002D14140074437A43240C121914146E437E
:103550001204120C92197D4364191214A04690446F
:103560001E6887693204120C944636143A04120C11
:103570003F146546554372432D0C52191514644689
:103580007C43A4461204120C62447743ED191214D2
:10359000AA1842440A60DF6945683E04360C3F14AD
:1035A0002A04120C2D14140074437A43240C1219AB
:1035B00014146E431204120C92197D4364191214F0
:1035C000A04690445E68C7693204120C94463614D3
:1035D0003A04120C3F146546554372432D0C5219A0
:1035E000151464467C43A4461204120C62447743CB
:1035F000ED191214AA1842444A601F6A05683E0475
:10360000360C3F142A04120C2D14140074437A4310
:10361000240C121914146E431204120C92197D43D7
:1036200064191214A04690449E68076A3204120C72
:10363000944636143A04120C3F14654655437243BF
:103640002D0C5219151464467C43A4461204120C26
:1036500062447743ED191214AA1842448A605F6AE3
:1036600005683E04360C3F142A04120C2D14140075
:1036700074437A43240C121914146E431204120C6E
:1036800092197D4364191214A0469044DE68076ABB
:103690003204120C944636143A04120C3F14654658
:1036A000554372432D0C5219151464467C43A446AD
:1036B0001204120C62447743ED191214AA18424402
:1036C000CA609F6A45683E04360C3F142A04120CF7
:1036D0002D14140074437A43240C121914146E43ED
:1036E0001204120C92197D4364191214A0469044DE
:1036F0001E69C7693204120C944636143A04120C3F
:103700003F146546554372432D0C521915146446F7
:103710007C43A4461204120C62447743ED19121440
:10372000AA1842440A61DF6A85683E04360C3F14D9
:103730002A04120C2D14140074437A43240C121919
:1037400014146E431204120C92197D43641912145E
:10375000A04690445E6987693204120C9446361480
:103760003A04120C3F146546554372432D0C52190E
:10377000151464467C43A4461204120C6244774339
:10378000ED191214AA1842444A619E69446935042D
:103790002D0C36142204120C241417006F437243AC
:1037A0003F0CD219171465431204120C52197443BA
:1037B0003C191214A2188A61DE69046935042D0CC3
:1037C00036142204120C241417006F4372433F0C6A
:1037D000D219171465431204120C521974433C1980
:1037E0001214A218CA611E6AC46835042D0C36145E
:1037F0002204120C241417006F4372433F0CD21999
:10380000171465431204120C521974433C19121414
:10381000A2180A625E6AC46835042D0C36142204AC
:10382000120C241417006F4372433F0CD219171463
:1038300065431204120C521974433C191214A21855
:103840004A629E6A046935042D0C36142204120C57
:10385000241417006F4372433F0CD21917146543A9
:103860001204120C521974433C191214A2188A62E1
:10387000DA6A45691004000C12142C04240C2D146F
:103880002300434354431B0C1B191C1468431B04A3
:103890001B0C1B186A4312191B14D218CA6200238E
:1038A0004B640B64CB638B634B630B6352E0C0468A
:1038B000D0CA021004C808CC019D2D68AC461D0476
:1038C0002D0CAB461B14994613041B0C12145D43BC
:1038D000AA464D465D43A84655462D0CAA46D044FF
:1038E00045462D14AA465D465543AB4645462D0434
:1038F0002D0CA846D8444D465543A946CA444546D2
:103900002D14A846C244554620C165462D042D0CF1
:10391000A94665462D14AC464D465D43A84665460E
:103920006B4345462D0CA84643441D14A8464D46FE
:103930005543A9461B041B0C4B4465466A4342444D
:103940001B14D3183B60013E019D043D0195043FCB
:10395000002EAFDC03B0F0BCBB46B246A946A04681
:10396000F0BDC046F0B5DE4657464E464546E0B58A
:1039700089B00400002B51D1D20747D5802293464D
:10398000875800970132FF32924680580132FF3249
:103990009146A2580192E02189008846615802911F
:1039A0009021C90066580396B022D200A758049708
:1039B000D026F600B446A6590596F025ED006659C6
:1039C000069688263601A5590795009F7D425F46D9
:1039D000E55140425746E051019840424F46E05180
:1039E000029840424746E051039840426050049993
:1039F0004842A050059A504261466050069A514292
:103A0000F022D200A150079D6A42A251180009B0CD
:103A1000F0BCBB46B246A946A046F0BD0120060058
:103A2000164010423FD13000B04645E09A4004C1F4
:103A300002229446E0444246112AE8DC2768FA173D
:103A40001F26F61A3D003541954204D080273F06D7
:103A5000DF40013F57409F402760FA175740BF1A89
:103A600007438022A2585242D017150035418542A3
:103A700004D080221206DA40013A42409A40802067
:103A80002250D0174240101A38430134FF340A68DC
:103A9000D71715003541BD42C8D080221206DA4042
:103AA000013A7A40C2E700200025A846C3E79A40C1
:103AB00004C102229446E0444246112AA7DC22684F
:103AC000D7171F25ED1A16002E41BE4204D08022C2
:103AD0001206DA40013A7A409A402260D7177A40BB
:103AE000D71B07438022A258D01716002E418642CA
:103AF00004D080221206DA40013A42409A408020E7
:103B00002250D0174240101A38430134FF340A685B
:103B1000D71716002E41BE42C9D080221206DA40C5
:103B2000013A7A40C3E70000F0B5DE4657464E46FC
:103B30004546E0B58DB0076843689B468168C36819
:103B400099460669456983691A00C469036A029740
:103B50000392BA1A00925A46571BAC46DC4462469E
:103B600004928A1B90468A199446CA180592A34467
:103B7000991B06912D1B3F1B4646F41A01944B4698
:103B80001B041B0C4E463214A24EB04634005C435C
:103B9000A146A14C63434E46360CB1464B441E141D
:103BA000B14646465643B2461B041B0C534462437F
:103BB0004A441B14D6180B963B041B0C3F14464674
:103BC0005E436343320C9B181A1446467E43B0464C
:103BD0001B041B0C43447C4314191B14E3180A9365
:103BE000664633041B0C3614B4468C4EB1465E4315
:103BF00034008B4F3E005E43240C32191414664689
:103C000049464E43B0461204120C424466467E4377
:103C1000B04644441214A1180991059C2204120CC8
:103C20002114804CA046260056437F4C6243360C3C
:103C3000B24652441614059646464E431204120CE0
:103C4000B24652446143059EB2465144121489184B
:103C5000089106990A04120C0E14494651437A43FE
:103C6000090C521811148A464946714389461204B8
:103C7000120C4A44774357441214B918079141462D
:103C8000594363430A0C9B181A144146674679430B
:103C90001B041B0C5B187C4314191B14E3180693BC
:103CA0002B041C0CA4462C14604DA84661466943A5
:103CB0005F4A66465643090C7318191465431B0482
:103CC0001B0C5B19160066438E191B14F61805961B
:103CD0005D462B041B0C2F145649894659438A46CE
:103CE00055494B435646360CB24653441E14B24611
:103CF0004E467E43B3461B041B0C5B444F43574464
:103D00001B14FF18049D2B041B0C2E14B2464646B0
:103D10005E435343360CB3465B441E14B3464646DB
:103D200055466E43B0461B041B0C43446A435A4439
:103D30001B14D21863464D466B4366464E43B44649
:103D40001B0C63441D14AC464D4665431B041B0C01
:103D50005B19614361441B14C918039C6510029BE5
:103D60009C4665440B9E73005C19A446ED1A019CA9
:103D70006310009CA0464344099E7400A046089E20
:103D80007600B146C844079E7600B146069E740090
:103D90004E46341BA146C144059E76007F00F619AD
:103DA00052004900521A911B8B46E246C2444746D4
:103DB000E91902912F19B84664444F46ED1B674636
:103DC00049467F1AB946B244514601600A9F7900BC
:103DD0008C469A46E2445146416090444146816097
:103DE00059466D1AC560009D019FED1B0561CB44CE
:103DF00059464161A41A846162469B1AC361029BC1
:103E00009F1B07620DB0F0BCBB46B246A946A04658
:103E1000F0BDC046A1EB0000D96E00008BBE0000D3
:103E20000D6200007E1A00003A16000049DD000015
:103E300046520000322E00000E7E0000F0B5DE4635
:103E400057464E464546E0B5A9B00C0002921E000A
:103E50004430349B062B50DC0723349A9B1A0027EE
:103E6000002208211D00B446260014E003682B41FF
:103E70009B1ADF1B021F12682A41D21A0B0009335A
:103E800016AC9B001F518B001A51F3181C682C4173
:103E90001C60013908380029E8DAAA463400664671
:103EA0001F9B5B101F93169B5B10169316A8FFF7C2
:103EB0003BFE1FA8FFF738FE329D354300D0B2E02D
:103EC000AB469F4F9F4B9C461EAE534603930096B6
:103ED00094E003689A1AD71B031F1B689A1A0B00F9
:103EE000093316AD9B005F518B005A5101390838D8
:103EF0000029EEDA00239A46D2E7002700220821A3
:103F0000F6E763461B6800994A6A09681804000CC2
:103F100080461B14994613041B0C121458434E463A
:103F20007343000C1B18181446465643B0461B0436
:103F30001B0C43444E46724380181B14C018891052
:103F4000236898465B42421A9146091802C4991A9E
:103F50003B680804000C09141A04120C1B14160008
:103F600046434A43360CB2465244161401960600A4
:103F70005E431204120CB24652444B43019EB246B9
:103F8000534412149B189B004B447A6892461204C7
:103F9000120C56463614B246060056434A43360CB7
:103FA000B14691444A461214564670434E46360472
:103FB000360CB14648445646714352180014121844
:103FC00092004146521AE901029843501121491BBF
:103FD000C9014250D9174B405B1A594619430B008F
:103FE000D1174A40521A13439B4601350837042320
:103FF0005B429846C4440099C9180091082D80DDA1
:10400000039B9A46210024395346339A0298FFF7BE
:10401000A9FC5B460343180029B0F0BCBB46B2467E
:10402000A946A046F0BD329A04A92000FFF766FA1F
:10403000F3009B191B01444A9B180093414B99467E
:104040001EAB9C4600239B4600215346039372E01F
:104050004B461F6863465A6A18683E04360C3F1484
:1040600013041B0C12141D0075437B432D0C5B19AC
:104070001D1456431B041B0C9B197A43AD181B14CB
:10408000ED188010471B2300401901C301938B00DA
:1040900004AA9A580098C5583E04360C38142B04CC
:1040A0001B0C2D141F00774343433F0CDB191F14D7
:1040B00034006C43A0461B041B0C434445437D194C
:1040C0001B14ED185219920011277F1ABB0004AD82
:1040D0005D59009CE35898461B041B0C444624146D
:1040E000A04634005C434343240CA24653441C14B2
:1040F000A246444666431B041B0C9B196043504474
:104100001B14C0182D18AD00CB010298C250FF013E
:10411000C551D3175A40D21A5B4613431A00EB1706
:104120005D40ED1A2A439346013104235B429846D1
:10413000C144C444019C08298ADD039B9A4661E777
:1041400054BF0210BCBF0210D0CA0210F0B5DE4648
:1041500057464E464546E0B583B001910468C268B3
:104160008769436A056BC66BAD1B581B3F1A801BE2
:10417000D21BA41A121A641052103B041B0C3914DF
:104180008C46624989460F005F43B846604F7B43C7
:104190004146090C884643449B46191488466146AB
:1041A0004B4659438A465B461B041B0C53446146ED
:1041B00079438C46E0441B1443445B0069108846F5
:1041C000A044641B9C46C4444146CD1A03041B0C06
:1041D0000014494659437B43090C8846434419144B
:1041E00088464946414389461B041B0C4B444743C0
:1041F00047441B14FF187F0070108018921B3E1854
:1042000033041B0C9B463614424B99465B46494689
:104210004B439A465B461B0259465B1A9B009B44E4
:104220005B465B0159465B1A5146090C8A4653446A
:10423000191488464946714389461B041B0C4B449C
:104240003102891B890089464E4471018E1B464408
:104250001B14F618B60013041B0C12142E498A46C0
:10426000594389462D4988464B434946090C89469E
:104270004B4419148946514651438A461B041B0C72
:10428000534441464A434A441B14D3189B00994661
:10429000C01B03041F0C00149B0ADB1B5A02D21A1A
:1042A0005200D2197B01DB19DB00DB195B01120C18
:1042B0009B181F148201121A904652024146521A4C
:1042C000520012181B041B0C9B1842011218D2003A
:1042D00012185201BF181B14FF18BF0063469B1928
:1042E000019A13604B46E3185360EB199360ED1B82
:1042F000D5604B46E41A146163469E1B566103B0B9
:10430000F0BCBB46B246A946A046F0BDA1EB0000FA
:10431000D96E00001D7500009A790000825A0000D5
:10432000F0B5DE4657464E464546E0B5ADB0050011
:104330000C0001921F00379B062B00DD66E107266B
:10434000F61A002210E09300EB1819683141196049
:10435000531C9B00EB18196831411960230002CBF4
:104360003141216002321C00112AECDD243C1AA9E3
:104370002800FFF7EBFE281D20A9FFF7E7FE280025
:10438000083026A9FFF7E2FE3A0008A92000FFF74F
:10439000B5F800250023190006960794022900DDD0
:1043A00036E18B0008A803931B589B00D8171A000E
:1043B0004240121A1543CA01019FBB50CB1C9C00FE
:1043C00008A822589200D61710007040801B0543A1
:1043D000DB01FA50881D8446800008AE05908359A1
:1043E0009E00B0469D4EB246039A524491461768CD
:1043F00008AB48201B181A593E04360C3F1413040E
:104400001B0C1214180070437B43000C83465B4462
:104410001814834656431B041B0C9B197A435A44B9
:104420001B14D2184244D617130073409B1B1D4324
:104430006346DB01019FFA5009239C468C44634686
:104440009B0008AA04939B589A009046230053446B
:1044500002931F6805235B1A9B0008AA48201218C4
:10446000D2583E04360C3F1413041B0C12141800CF
:1044700070437B43000C83465B44181483465643C9
:104480001B041B0C9B197A435A441B14D218424438
:10449000D61710007040831B1D43AB466546EB01E9
:1044A000019FFA500E000C36B30008AA9F58BF00B7
:1044B0005246059D53590222521A920008AC4820D8
:1044C0002418A5581A04120C181484462B041B0C2B
:1044D0002D14180050438046604643434046000C6C
:1044E00080464344181480466A431B041B0C9B18E7
:1044F0006046454345441B14ED1848460268049B3A
:1045000008AC48202418E3581004000C844610140A
:1045100080461A04120C1B146046504381464046E4
:1045200042434846000C81464A4410148146604686
:10453000584384461204120C6244404643434B44A1
:1045400012149B185B19FB18DA171D005540AD1AA1
:1045500058462A0002430592F601019FBB5108000C
:104560000F300700830008A81A5893009B46504656
:10457000049BC358039E4825A6591A04120C94465E
:104580001A14914633041B0C3614604658435343A7
:10459000020C904643441A14904660467043844689
:1045A0001B041B0C63444A46564346441B14F6182E
:1045B000029B1C680B235B1A9B0008A84019C0587B
:1045C00023041A0C9046241403041B0C0214944672
:1045D000404658436343000CC018031442466546E6
:1045E0006A4390460004000C40446C431B190014BD
:1045F0001B189B195B441A00D81743401B1A059DD2
:104600001D43FF01019BDA510131C7E60026AEE6EA
:10461000069E079C0623082B06DC99001AAA8A58D6
:10462000921004C40133F6E70C2305E099001AAA9E
:104630008A58921004C40133112BF7DD210024396C
:104640003300369A0198FFF78DF928432DB0F0BC5E
:10465000BB46B246A946A046F0BDC046F0CB02100C
:10466000F0B5DE4657464E464546E0B599B0994608
:10467000229F00240025A04692460E00040014E06C
:10468000F9683A69AA4200DD0021AA005244B869DB
:1046900002900195009131002000FFF7CFFB4346C7
:1046A000034398464834243601353B68AB420ADD63
:1046B0004B465B694A469269002AE1D07A69AA4270
:1046C000DEDD0023DCE7D1460EE0AA004A44B969EA
:1046D0000191009531002000FFF722FE434603437D
:1046E00098464834243601357B68AB4205DDFB68CB
:1046F0003A69AA42E9DD0023E7E74446B3464E465D
:104700000595D946BA460AE055465E46229B9A462A
:1047100024239C46E144002F00D0059501355346E3
:104720009B68AB4241DD5346DA681B69AB4200DD52
:10473000002206A94846FEF7E1FEEB079B46002350
:1047400000221F00D846B34653462293AA46082AA1
:10475000DADC5000049006AED3009B599B001F4347
:1047600011028C46DC445546AD0060462B50D817EC
:1047700043401B1A23430498013080008059800075
:104780004446E4174440012056463040241827434D
:10479000803159446C50E1174C40641A1C4393001B
:1047A0004B44002119600132D1E7574608E0DA0195
:1047B000B218A900002088500133112BF7DD013514
:1047C0001F2D01DC0023F8E7200005F033FF01383E
:1047D000F861059819B0F0BCBB46B246A946A046A0
:1047E000F0BD0000F0B5DE4657464E464546E0B502
:1047F0008DB00E001400002800D1D9E00368002B12
:1048000000D1D8E042689046002A00D1D6E0C268C4
:104810009146002A00D1D4E04569002D00D1D3E0B3
:104820005A6B1B78002B00D0AAE008335B00985E1F
:10483000122105F037FF03B20393E3001B19DB00DD
:10484000F200921912019B184344DB6B022B00D13A
:104850009AE09023DB00E3189B004A4698585C4B93
:10486000984200DD8EE00730122105F01BFF013079
:104870000490431E9B46E7003F193F024F44BA464F
:1048800059463800FEF798FA5B46D8005844400075
:104890009023DB00E3189B004A469B58083098425F
:1048A00000DA18009023DB00E3189B004A4698507A
:1048B0001130122105F0F6FE0590D823DB00E31835
:1048C0009B005B590693434BE3189B005B5907938E
:1048D000414BE3189B005B590893E3001B19DB0075
:1048E000F200921912019B1843441B6C002B00D05C
:1048F000039B04AF0993394BE3189B004A469B582E
:104900000A93E30099461919C90190235B019C465B
:10491000614469184B461A191202AA181B19DB00C8
:10492000F0008346801900011B1828334344009788
:104930005046FFF795FED823DB00E3189B00E850B4
:104940004B461B19DB0032005A4412019B184344AA
:10495000DA6B204BE3189B005A51099A1E4BE3185F
:104960009B005A510B9B1E4A94466444A400635119
:1049700000200DB0F0BCBB46B246A946A046F0BD33
:10498000062353E7202073E7E3001B19DB00F20046
:10499000921912019B1843441B6C9B46002B04D0B8
:1049A000039B0493013B9B4665E70023049362E766
:1049B00001204042DDE701204042DAE70120404289
:1049C000D7E701204042D4E701204042D1E7C0466A
:1049D00026020000C2060000C40600008204000097
:1049E000C606000010B5002811D0002404E06300C2
:1049F000CB1800221A800134054BC358F922D2008B
:104A000082585A43034BC3585343A342EFDC10BDB3
:104A1000C4070000BC07000010B5FCF7D1F910BDB9
:104A200010B50200002000E001304B1E834209DD7A
:104A3000135CFF2BF8D113185B781F24A343E02BE2
:104A4000F2D101E00120404210BDF8B504000F0092
:104A50001600050002E003350330361A3100280045
:104A6000FFF7DEFF2D18002811DB29783A789142F4
:104A7000F1D169787A789142EDD1AA78B9784A4033
:104A8000032AE8D8890700D5013D281B01E0012051
:104A90004042F8BDF0B5DE4657464E464546E0B5C5
:104AA00085B006000C0015009B46002800D167E188
:104AB0000968FBF7E3FE071E00DA64E121680918C4
:104AC00021603000FCF702F88046002800DAA1E0FF
:104AD0002368434423602B683A189B1A2B60F72302
:104AE000DB00F358002B04D0F623DB00F358002B37
:104AF0002FD0F623DB00F358002B22D1F623DB0066
:104B00000122F250206879424346C91A2A684118A6
:104B1000FFF79BFF9D4BF050002800DA81E0C019A1
:104B20004044F823DB00F3585843C000984BF35837
:104B3000F922D200B158594305F0B4FDF723DB0048
:104B4000F050924BF7583000FBF789FE3F18914B1D
:104B5000F7500E9B002B72D02B688E4AB3508E4AB2
:104B6000B258002A64D1002B62DDFC22D200B3507F
:104B70002768FB1823602B68864AB2589B1A2B6063
:104B800000230393FC23DB00F458E4000023994640
:104B90007F4BF3584B4500DCF0E0002398467F4BF9
:104BA000F358434500DCAFE0039D434601934B4679
:104BB0000093230003AA3900300001F0CBFDC300AD
:104BC0005D1B039B9A4655444B465B004344F933B7
:104BD000FF339B00F3185A68531B3F18651B0028CE
:104BE0007EDBA2427CDC424601924A46009203AA46
:104BF00039003000FDF784FF002800DA7DE03F181F
:104C0000C4005346E41A039BE4182C1B01239C4662
:104C1000E044C4E759463000FFF7E4FE0720404275
:104C200064E059463000FFF7DDFE032040425DE0BE
:104C300059463000FFF7D6FE0620404256E0554B5D
:104C4000F3582A68934228DCFC22D200B158524A19
:104C5000B258914228DB37001C37891A791838007E
:104C60001DF084FF4C4B9946F0584A4B9846F25839
:104C70003818216806F070F94B46F3584246B2588E
:104C80009B18FC21C900735023689B1823602B6874
:104C90004246B2589B1A2B6072E759463000FFF724
:104CA000A1FE0120404221E030001C304018216864
:104CB0001A0006F051F9FC20C0003358354AB158AB
:104CC0005B18335023685B1823602B68B2589B1A1B
:104CD0002B6059463000FFF785FE0220404205E078
:104CE00059463000FFF77EFE0820404205B0F0BC78
:104CF000BB46B246A946A046F0BD59463000FFF774
:104D000071FE09204042F1E749463000FDF73AF8CC
:104D100000280DDB0025214BF358AB4216DD2A009D
:104D200049463000FFF75EFD002808DB0135F2E759
:104D300059463000FFF756FE0A204042D6E7594652
:104D40003000FFF74FFE0B204042CFE7F922D200A0
:104D5000B1584A465143594349005944300002F082
:104D6000DFF9002803DB01239C46E14410E75946A4
:104D70003000FFF737FE0C204042B7E70020B5E7D0
:104D800005204042B2E706204042AFE7B4070000EA
:104D9000C4070000CC070000DC070000BC070000CF
:104DA000F0B5DE4657464E464546E0B589B08246E8
:104DB0000D001400106856680A68CF6DD317C1172C
:104DC00006F030F8802292040023801859410090A8
:104DD00001917042FB17C1173A0006F023F8009EBC
:104DE000019F36184F41A068E36898466A68AB6D2A
:104DF0009946D317C11706F015F836184F414346A8
:104E000058424B46DB17C1174A4606F00BF83618D6
:104E10004F41206963699846AA686B6D9946D3171C
:104E2000C11705F0FFFF36184F41434658424B4625
:104E3000DB17C1174A4605F0F5FF36184F41A06948
:104E4000E3699846EA682B6D9946D317C11705F0B8
:104E5000E9FF36184F41434658424B46DB17C1170E
:104E60004A4605F0DFFF36184F41206A636A9846CC
:104E70002A69EB6C9946D317C11705F0D3FF361892
:104E80004F41434658424B46DB17C1174A4605F08F
:104E9000C9FF36184F41A06AE36A98466A69AB6C4D
:104EA0009946D317C11705F0BDFF36184F41434649
:104EB00058424B46DB17C1174A4605F0B3FF361878
:104EC0004F41206B636B9846AA696B6C9946D31768
:104ED000C11705F0A7FF36184F41434658424B46CD
:104EE000DB17C1174A4605F09DFF36184F41A06BEE
:104EF000E36B9846EA692B6C9946D317C11705F006
:104F000091FF36184F41434658424B46DB17C117B5
:104F10004A4605F087FF36184F413B03360D1E43C6
:104F2000B311F2177615964201D03B4B53405246CF
:104F300013808023DB00E05880235B01EA58D317FD
:104F4000C11705F06FFF8026B604002736184F41C1
:104F5000324BE058324BEA58D317C11705F062FFC5
:104F600036184F418123DB00E0582E4BEA58D31707
:104F7000C11705F057FF36184F412B4BE0582B4B0C
:104F8000EA58D317C11705F04DFF36184F41822359
:104F9000DB00E058264BEA58D317C11705F042FF53
:104FA00036184F41234BE058234BEA58D317C1170B
:104FB00005F038FF36184F418323DB00E0581F4BC4
:104FC000EA58D317C11705F02DFF36184F411C4B77
:104FD000E0581C4BEA58D317C11705F023FF3618C9
:104FE0004F413B03360D1E43B311F217761596421F
:104FF00001D0094B53405246138440239846A044A5
:105000006B1CFF339B465346023303930F230093DD
:1050100044465D461FE0C046FF7F000004040000D8
:1050200004100000081000000C0400000C10000028
:1050300010100000140400001410000018100000EC
:105040001C0400001C1000001A80039B0233039311
:10505000009B013B0093009B002B00DCF4E12368E4
:10506000994663689A462E68EB6D9846F7174B464B
:10507000DB179B464A463000390005F0D3FE8022FC
:105080009204002312184B41049205935346D917FA
:1050900032003B00504605F0C5FE8026B6040027CE
:1050A00036184F41534658424346DB179A46C117BC
:1050B000424605F0B7FE049A059B12184B41069232
:1050C00007934A465B464046514605F0ABFE8019C1
:1050D000794104900591A3689846E6686B68994603
:1050E000AF6DDB179B464346DB179A464246484660
:1050F000594605F097FE069A079B12184B410692F7
:105100000793F1174A465B46300005F08BFE049A80
:10511000059B12184B41049205937042FE17C1176C
:105120003A00330005F07EFE069A079B12184B41A9
:1051300006920793424653463800310005F072FE4E
:10514000049E059F36184F4104960597236998469B
:105150006669AB6899466F6DDB179B464346DB1764
:105160009A4642464846594605F05CFE069A079B19
:1051700012184B4106920793F1174A465B463000DE
:1051800005F050FE049A059B12184B4104920593BA
:105190007042FE17C1173A00330005F043FE069A2D
:1051A000079B12184B41069207934246534638001C
:1051B000310005F037FE049E059F36184F410496D6
:1051C0000597A3699846E669EB6899462F6DDB174A
:1051D0009B464346DB179A4642464846594605F0E9
:1051E00021FE069A079B12184B4106920793F1176E
:1051F0004A465B46300005F015FE049A059B1218DE
:105200004B41049205937042FE17C1173A003300D8
:1052100005F008FE069A079B12184B410692079369
:10522000424653463800310005F0FCFD049E059FC0
:1052300036184F4104960597236A9846666A2B698B
:105240009946EF6CDB179B464346DB179A4642466E
:105250004846594605F0E6FD069A079B12184B4151
:1052600006920793F1174A465B46300005F0DAFDD7
:10527000049A059B12184B41049205937042FE1745
:10528000C1173A00330005F0CDFD069A079B1218AE
:105290004B4106920793424653463800310005F0D1
:1052A000C1FD049E059F36184F4104960597A36AD9
:1052B0009846E66A6B699946AF6CDB179B46434696
:1052C000DB179A4642464846594605F0ABFD069A1A
:1052D000079B12184B4106920793F1174A465B460B
:1052E000300005F09FFD049A059B12184B41049273
:1052F00005937042FE17C1173A00330005F092FD86
:10530000069A079B12184B41069207934246534652
:105310003800310005F086FD049E059F36184F4188
:1053200004960597236B9846666BAB6999466F6C3C
:10533000DB179B464346DB179A464246484659468A
:1053400005F070FD069A079B12184B4106920793D1
:10535000F1174A465B46300005F064FD049A059B50
:1053600012184B41049205937042FE17C1173A0080
:10537000330005F057FD069A079B12184B41069221
:105380000793424653463800310005F04BFD049E1A
:10539000059F36184F4104960597A36B9946E66B17
:1053A0004034EF692B6C9846FB179B464B46DB1746
:1053B0009A464A463800594605F034FD069A079B3E
:1053C00012184B4106920793F1173A005B463000E2
:1053D00005F028FD049A059B12184B410492059391
:1053E00070424346DB179B46C117424605F01AFD43
:1053F000069E079F36184F414A4653464046594637
:1054000005F010FD049A059B801859410135FF35C0
:105410003B03360D1E43B311F2177615B24201D08D
:105420000D4B5340039A13800B03000D1843009B50
:105430009B00944663448211C1174015814200D1FC
:1054400002E6054A4A40FFE509B0F0BCBB46B24659
:10545000A946A046F0BDC046FF7F0000F0B5DE467D
:1054600057464E464546E0B593B001908846914672
:10547000146856680868CF6DC117E51722002B0025
:1054800005F0D0FC80229204002312184B410292B6
:1054900003937642F917F3179A463200380005F065
:1054A000C1FC029A039B12184B4102920393802382
:1054B0004146C8585C33CF58C11722002B0005F075
:1054C000B1FC8024A404002524184D41F9173200B2
:1054D0005346380005F0A6FC001969410490059177
:1054E0004B469C68DE68434658689F6DC117E517B8
:1054F00022002B0005F096FC029A039B12184B41E8
:10550000029203937642F917F3179A463200380055
:1055100005F088FC029A039B12184B4102920393F8
:1055200084234146C8585433CF58C11722002B005A
:1055300005F078FC049C059D24184D41F9173200B4
:105540005346380005F06EFC00196941049005913E
:105550004B461C695E69434698685F6DC117E51745
:1055600022002B0005F05EFC029A039B12184B41AF
:10557000029203937642F917F3179A4632003800E5
:1055800005F050FC029A039B12184B4102920393C0
:1055900088234146C8584C33CF58C11722002B00EE
:1055A00005F040FC049C059D24184D41F91732007C
:1055B0005346380005F036FC001969410490059106
:1055C0004B469C69DE694346D8681F6DC117E517D5
:1055D00022002B0005F026FC029A039B12184B4177
:1055E000029203937642F917F3179A463200380075
:1055F00005F018FC029A039B12184B410292039388
:105600008C234146C8584433CF58C11722002B0081
:1056100005F008FC049C059D24184D41F917320043
:105620005346380005F0FEFB0019694104900591CE
:105630004B461C6A5E6A43461869DF6CC117E51762
:1056400022002B0005F0EEFB029A039B12184B413F
:10565000029203937642F917F3179A463200380004
:1056600005F0E0FB029A039B12184B410292039350
:1056700090234146C8583C33CF58C11722002B0015
:1056800005F0D0FB049C059D24184D41F91732000C
:105690005346380005F0C6FB001969410690079192
:1056A0004B469C6ADE6A434658699F6CC117E517F2
:1056B00022002B0005F0B6FB029A039B12184B4107
:1056C000029203937642F917F3179A463200380094
:1056D00005F0A8FB029A039B12184B410492059314
:1056E00094234146C8583433CF58C11722002B00A9
:1056F00005F098FB069C079D24184D41F9173200D0
:105700005346380005F08EFB001969410290039161
:105710004B461C6B5E6B43469A695B6C9A46D3178B
:10572000E5172000290005F07DFB049A059B12185F
:105730004B410492059376425346DB17F7175246C6
:105740003000390005F06EFB049A059B12184B419E
:105750000492059398234146CA582C33C9588A4667
:10576000D3172000290005F05DFB029C039D24183F
:105770004D415146CB1752463000390005F052FBDF
:1057800024184D410294039549468C6BCE6B4146DB
:10579000CA69096C8A46D317E5172000290005F06D
:1057A00041FB049A059B12184B41049205937642E3
:1057B0005146CB17F71752463000390005F032FB3F
:1057C000049A059B12184B41049205939C23414671
:1057D000CA582433C9588A46D3172000290005F037
:1057E00021FB029C039D24184D415146CB17524684
:1057F0003000390005F016FB00196941049B059C37
:1058000022031B0D13439A11DC175B15A34201D031
:10581000894A6240019B1A800B03000D18438311D3
:10582000C2174015904201D0834B5340019A5380D8
:105830008023DB004A46D3589A4680235B014246C8
:10584000D258D3175146C9178B46504605F0EAFA8D
:105850008024A40400250019694106000F00842358
:105860005B014246D258D3175046594605F0DAFA42
:1058700024184D41714B4A46D3589A46704B4246C4
:10588000D258D3175146C9178B46504605F0CAFA6D
:1058900036184F416B4B4246D258D31750465946A3
:1058A00005F0C0FA24184D418123DB004A46D35845
:1058B0009A46654B4246D258D3175146C9178B4674
:1058C000504605F0AFFA36184F41604B4246D25869
:1058D000D3175046594605F0A5FA24184D415C4BA4
:1058E0004A46D3589A465B4B4246D258D317514644
:1058F000C9178B46504605F095FA36184F41564B5E
:105900004246D258D3175046594605F08BFA241810
:105910004D418223DB004A46D3589A464F4B4246BC
:10592000D258D3175146C9178B46504605F07AFA1C
:1059300036184F414A4B4246D258D3175046594623
:1059400005F070FA24184D41464B4A46D3589A4602
:10595000454B4246D258D3175146C9178B4650463D
:1059600005F060FA36184F41404B4246D258D317E3
:105970005046594605F056FA24184D418323DB0062
:105980004A46D3589A463A4B4246D258D3175146C4
:10599000C9178B46504605F045FA36184F41354B2E
:1059A0004246D258D3175046594605F03BFA2418C0
:1059B0004D41314B4A46D3589A46304B4246D25815
:1059C000D3175146C9178B46504605F02BFA3618A7
:1059D0004F412B4B4246D258D3175046594605F0FB
:1059E00021FA001969413B03340D1C43A311E2174E
:1059F0006415944201D0104B53404022019CA352A5
:105A00000B03000D18438311C2174015904201D0BB
:105A1000094B5340422201998B5240234B449B46F1
:105A200080235B0043449A460B1D01930F2302938E
:105A30005346DA469B462CE0FF7F0000040400003A
:105A400004100000841000000810000088100000FE
:105A50000C0400000C1000008C100000101000005E
:105A600090100000140400001410000094100000B6
:105A700018100000981000001C0400001C1000000A
:105A80009C1000001380019B04330193029B013B97
:105A90000293029B002B01DC00F034FC53461C688F
:105AA0005E685B461B6898465B46DF6D4346DB17C6
:105AB0009946E51722002B004046494605F0B2F909
:105AC00080229204002312184B4106920793F31789
:105AD000190042464B4630000C9105F0A3F9802294
